:020000040800F2
:10000000F05700206D010008F3080008E908000817
:10001000EF080008D50800088D190008000000004E
:10002000000000000000000000000000D5000008F3
:10003000DF0800080000000019010008090F00088F
:10004000D9080008DB080008A5110008000000001E
:1000500000000000870100081310000815100008B8
:10006000050F000800000000ED080008110B000853
:1000700091190008000000000D1000080F10000882
:1000800011100008D108000800000000DD08000879
:10009000070F000800000000000000000000000042
:1000A000000000000000000000000000D30800086D
:1000B000E1080008E3080008E5080008E708000870
:1000C000DFF80CD000F046FA00480047911D000808
:1000D000F0570020224B19680868B0E8F00F80F351
:1000E0000988BFF36F8F4FF0000080F311884EF046
:1000F0000D0E70470000000006480068006880F39D
:10010000088862B661B6BFF34F8FBFF36F8F00DF11
:1001100000BF00BF08ED00E0EFF30980BFF36F8F71
:100120000F4B1A6820E9F00F106008B54FF0BF00C0
:1001300080F31188BFF34F8FBFF36F8F03F09CFBE9
:100140004FF0000080F31188BDE808401968086886
:10015000B0E8F00F80F30988BFF36F8F704700BFDE
:1001600040000020EFF305807047000006488047FC
:1001700006480047FEE7FEE7FEE7FEE7FEE7FEE78C
:10018000FEE7FEE7FEE7FEE7CD0F0008C10000082E
:1001900000487047D848000810B50446FFF7F8FF3C
:1001A0000068005D00F0010010BD40EA01039B07FC
:1001B00003D009E008C9121F08C0042AFAD203E0DC
:1001C00011F8013B00F8013B521EF9D27047D2B240
:1001D00001E000F8012B491EFBD270470022F6E730
:1001E00010B513460A4604461946FFF7F0FF2046AD
:1001F00010BD10B5044604E00B7800F8013B03B1D4
:10020000491C521EF8D2204610BD421C10F8011B9A
:100210000029FBD1801A704730B5054600200346FF
:1002200000E05B1C934205D2EC5CC85C201A01D153
:10023000002CF6D130BD00000FB400B589B00BA87A
:1002400000906A4603480A9900F07AF909B05DF80F
:1002500014FB0000980000200FB400B58DB010A969
:1002600009900B9000914FF0FF300A9000200C9005
:1002700005480690054807906A4609A80F9900F0BE
:1002800031F90DB05DF814FB010500081F050008E9
:100290002DE9FF5F1D464FF0FF3BD5E90146914632
:1002A0005F464FF00008A9697F1C01988847296ABA
:1002B000824688470028F6D1BAF1FF3F0CD024F4DB
:1002C000C064002E19DD600614D5BAF12B0F09D0D9
:1002D000BAF12D0F0ED103E0584604B0BDE8F09FEF
:1002E00044F48064A9697F1C01988847761E824681
:1002F000002E02DDBAF1300F03D0B9F1000F26D085
:1003000032E0A969761E44F400747F1C0198884786
:100310008246002E05DDBAF1780F06D0BAF1580FEB
:1003200003D0B9F1000F10D01EE0B9F1000F02D0D8
:10033000B9F1100F18D1A969761E24F400747F1C3E
:10034000019888478246102002E0082000E00A2039
:10035000814609E008FB0908A969761E44F4007487
:100360007F1C019888478246002E05DD494650468D
:1003700000F0A4F80028EDDAE96901988847A005A3
:1003800002D46FF00100A8E7E00725D1600613D57D
:10039000600502D5C8F1000000E0404629680A1D4A
:1003A0002A600968220501D5087015E0220701D5E9
:1003B000088011E008600FE02868011D29600068CE
:1003C000210502D580F8008006E0210702D5A0F8BB
:1003D000008001E0C0F8008038467EE72DE9FF5F2D
:1003E000D2E901A74FF00008916999461446DDF85B
:1003F00038B0464601988847054659EA0B0005D0B3
:1004000009E0A169761C019888470546216A2846BB
:1004100088470028F5D1681C03D05FEACA7005D070
:1004200015E04FF0FF3004B0BDE8F09F2068011DDB
:100430002160D0F800800AE05FEACA7001D108F8B4
:10044000015BA169761C7F1E019888470546002F35
:100450001ADD681C18D0B9F1000F0DD0E81705EBB4
:10046000D060421120F01F0059F822102A1A0120F2
:1004700090400142E0D107E0BBF1000FDCD1216ADE
:10048000284688470028D7D0E16901988847BBF102
:10049000000F07D1002E05DD5FEACA7002D10021EE
:1004A00088F80010A068B84203DDBBF1000F03D04C
:1004B00017B16FF00100B6E73046B4E73A2800D232
:1004C000303820F02002412A01D3A2F137008842BF
:1004D00001D34FF0FF307047026811441378016078
:1004E00018467047D16004495161044911620021E6
:1004F0001161114600F056B8D904000899010008AE
:10050000426842B1016811F8013B23B1521EC0E9B3
:100510000012184670470121C160881E704742686A
:100520005AB1C368016843B983688B4205D0491E3C
:10053000521CC0E90012002070474FF0FF30704796
:10054000024B9361024BD361FFF7CCBF911A0008B5
:1005500095050008064C074D06E0E06840F00103F1
:1005600094E8070098471034AC42F6D3FFF7ACFD8F
:100570005849000878490008094910B508784C1C0A
:1005800018B1401E0870205C10BD00210720ABBED2
:10059000207010BD02490878421C0A7070470000A4
:1005A000A80000202DE9F34F8BB04FF0000801F1B7
:1005B0000C000C464FF0010B46460DF1080A019065
:1005C0006269012101989047051E2DD0252D2CD060
:1005D000216A8847C0B16269012101989047216A68
:1005E00088470028F7D1411E62690198904700E0D2
:1005F000761CA1690B988847216A88470028F7D1A3
:10060000E1690B988847DBE7A1690B9888470746A3
:10061000A84201D1761CD3E7E1690B9888477F1C7B
:1006200002D1B8F1000F6FD046E1002762693D4664
:100630003946019890472A2804D16269012101981E
:1006400090470125DFF88492626901210198904763
:10065000A0F130010A290AD24F45E5DC07EB8701FA
:1006600000EB4107303FDFD445F01005ECE7E90629
:1006700001D46FF000476C280AD04C2814D06828A9
:1006800015D06A280DD074281CD07A281AD01DE005
:1006900062690121019890476C2802D045F0040559
:1006A00014E045F002050DE045F020050AE062691E
:1006B000012101989047682802D045F0080505E01F
:1006C00045F400656269012101989047C4E901572A
:1006D00065283DD019DC58287AD00CDC452837D065
:1006E00004DC252826D0412831D131E046282FD0FE
:1006F00047282CD12CE05B2877D0612828D06328AC
:100700007CD0642823D15AE0D0E06F2848D008DCA0
:1007100066281DD067281BD0692821D06E2816D1E5
:1007200027E0702845D0732868D0752847D07828EE
:100730000DD14DE0A1690B988847054625283FF467
:1007400069AFE1690B9888476D1C3FF46AAFB3E06D
:1007500023466A466FF001000B99AFF300809EE0DC
:1007600045F040006060A80723464FF0000236D4F1
:100770003EE0E8077FF447AF2068011D2160006874
:10078000290501D506701BE7290701D5068017E763
:10079000A90703D5F117C0E9006111E706600FE76B
:1007A00045F040006060A80723464FF0080216D4C9
:1007B0001EE040F60E0125EA0100606016E045F0FB
:1007C00040006060A80723464FF00A0207D40FE0FC
:1007D00045F040006060A80708D5234610226FF05E
:1007E00001000B99AFF3008059E007E02346102287
:1007F0006FF001000B99FFF74BFD50E04FF000093F
:100800004F464B46632802D05B2806D040E0E806FE
:1008100001D40120A06001273AE06269012101981A
:1008200090475E2805D14FF0010962694946019859
:100830009047216939B900210A46534643F82120DF
:10084000491C0829FADBB0B3216969B9C11700EB6B
:10085000D16253110AEB830122F01F02821A012098
:100860000B68904003430B60626901210198904737
:100870005D28E8D1B9F1000F09D00020514651F8A8
:100880002020D24341F82020401C0828F7DB02AB8F
:10089000224600976FF001000B99FFF79FFD00289B
:1008A0000CDA401C08D1BBF1000F05D04FF0FF302F
:1008B0000DB0BDE8F08FFFE74046F9E7E90701D149
:1008C00008F1010806444FF0000B79E6CCCCCC0CC3
:1008D0007047704700BFFEE770477047704770472A
:1008E000704770477047704700BFFEE7704700BF12
:1008F000FEE770472DE9FE4F4768D0F808C0D0F8F2
:100900000C80D0F81090D0F814A0CDF808A0D0F842
:1009100018A0CDF804A0D0F81CA0CDF800A00022AB
:10092000012303254FF001160C885FE004F0010A53
:10093000BAF1000F55D027EA030A91F802B00BFA7A
:1009400002FB4AEA0B0791F808A04FEA420B0AFAA9
:100950000BFA2CEA050B4AEA0B0C28EA030A91F879
:100960000AB00BFA02FB4AEA0B0829EA060A91F8D8
:1009700003B002F1100E0BFA0EFB4AEA0B0A91F8D3
:1009800004B00BFA02FB4AEA0B09DDF808A02AEAD8
:10099000060A91F805B00BFA0EFB4AEA0B0A91F829
:1009A00006B00BFA02FB4AEA0B0ACDF808A091F850
:1009B00009A04FEA420B0AFA0BFADDF804B02BEA61
:1009C000050B4AEA0B0ACDF804A0DDF800A02AEADC
:1009D000030A91F807B00BFA02FB4AEA0B0ACDF8BA
:1009E00000A05B00AD007600521C6408002C9DD175
:1009F000DFF8C4A0504502D14FF01F0A01E04FF0CC
:100A0000000A27EA0A0AC0F804A0DFF8ACA05045A3
:100A100002D14FF01F0A01E04FF0000A2CEA0A0A47
:100A2000C0F808A0DFF890A0504502D14FF01F0A8F
:100A300001E04FF0000A28EA0A0AC0F80CA0DFF82B
:100A400078A0504502D14FF01F0A01E04FF0000A94
:100A500029EA0A0AC0F810A0DFF85CA0504502D1CC
:100A60004FF01F0B01E04FF0000BDDF808A02AEA61
:100A70000B0AC0F814A0DFF840A0504502D14FF097
:100A80001F0B01E04FF0000BDDF804A02AEA0B0A6F
:100A9000C0F818A0DFF820A0504502D14FF01F0B7E
:100AA00001E04FF0000BDDF800A02AEA0B0AC0F8C5
:100AB0001CA0BDE8FE8F000000000C400268054B42
:100AC000984201D11F2300E000230B439A430260A8
:100AD0007047000000000C400268054B984201D1AD
:100AE0001F2300E000239A430A430260704700007E
:100AF00000000C404FF6FF71018000218170C17031
:100B0000017141718171C1710172417281727047CD
:100B100070470000014908607047000088004042AB
:100B200010B502460C4BD86820F003001043D86083
:100B3000586820F4706040EA01205860074B1B6839
:100B400043B10123054C241D23600023034C883C42
:100B5000C4F88C3010BD0000000002408800404204
:100B600038B50020009000BF212000F069F905464B
:100B70000098401C00900098B0F5C06F01D2002D85
:100B8000F2D0212000F05CF908B1012400E000243B
:100B9000204638BD01490860704700008801404286
:100BA0000146044AD06820F0F00040EA0110D0600D
:100BB00070470000000002400146034AD06820F45C
:100BC00040700843D0607047000002402DE9FC4FA0
:100BD0000146DFF864B2DBF80CB00BF0020BBBF19E
:100BE000000F01D0954B00E0944BDFF84CB2DBF8DE
:100BF0000CB00BF0010BBBF1000F00D05B081C46E2
:100C0000DFF834B2DBF80CB00BF0040BBBF1000FD3
:100C10000DD0DFF824B2DBF804B0CBF3032B0BF1DB
:100C2000010BCDF800B0DDF800B004FB0BF4DFF8E9
:100C300008B2DBF80CB0CBF3012BBBF1000F06D0F0
:100C4000BBF1010F08D0BBF1020F28D122E0DFF881
:100C5000ECB1C1F800B027E0DFF8DCB1DBF80CB094
:100C60004FF0080E0EEA1B1BBBF1000F01D1A0468E
:100C70000DE0DFF8C4B1DBF80CB0CBF3021B0BF1D5
:100C8000010B4FF0010E0EFA0BFEB4FBFEF8C1F89B
:100C9000008009E04FF4004BC1F800B004E049F6D1
:100CA000404BC1F800B000BF00BFDFF88CB1DBF8EB
:100CB00010B00BF0020BBBF1000F01D05F4D00E054
:100CC0005E4DDFF874B1DBF810B00BF0010BBBF137
:100CD000000F00D06D082F46DFF85CB1DBF810B0D4
:100CE0000BF0040BBBF1000F0DD0DFF84CB1DBF8BB
:100CF00004B0CBF3031B0BF1010BCDF800B0DDF812
:100D000000B007FB0BF7B946DFF82CB1DBF810B0E9
:100D10000BF0100BBBF1000F01D04FEA5909C1F8DD
:100D20000490DFF814B1DBF818B04FEA1B1000F0A4
:100D3000080BBBF1000F02D1DFF800C10BE000F09F
:100D4000070B0BF1010B4FF0010E0EFA0BF0DFF861
:100D5000ECB0BBFBF0FCC1F80CC0DFF8DCB0DBF89A
:100D6000180000F0080BBBF1000F04D1DFF8CCB085
:100D7000CDF804B00DE000F0070B0BF1010B4FF0C4
:100D8000010E0EFA0BF0DFF8B4B0BBFBF0FBCDF8B0
:100D900004B0DDF804B0C1F810B0DFF89CB0DBF8A7
:100DA00014B00BF0030BBBF1000F06D0BBF1010F29
:100DB00005D0BBF1020F06D103E01E4605E02E462A
:100DC00003E0264601E03E4600BF00BFDFF868B002
:100DD000DBF814B0CBF3011BBBF1000F06D0BBF165
:100DE000010F06D0BBF1020F08D105E04FF400421D
:100DF00006E049F6404203E0324601E0624600BFA9
:100E000000BFDFF834B0DBF814B04FEA1B2000F06D
:100E1000080BBBF1000F01D1924609E000F0070B6F
:100E20000BF1010B4FF0010E0EFA0BF0B2FBF0FAD2
:100E3000C1F808A0BDE8FC8F0000024000127A0053
:100E400010B5014601F0E003202B02D1074B1A68D0
:100E500001E0074BDA6B01F01F040123A3401340AC
:100E60000BB1012000E0002010BD00000000024096
:100E700000800D400D49896821F003010B4A916003
:100E8000012802D002280ED106E00849896841F005
:100E90000101064A916007E00449896841F00301B5
:100EA000024A916000E000BF00BF704700000240AE
:100EB00038B50020009000BF2220FFF7C1FF054693
:100EC0000098401C00900098B0F5C06F01D2002D32
:100ED000F2D02220FFF7B4FF08B1012400E0002483
:100EE000204638BD29B1064AD2690243044BDA6173
:100EF00004E0034AD2698243014BDA617047000083
:100F0000000002407047704710B500BFBF2080F35B
:100F10001188BFF34F8FBFF36F8F00BF02F050FFF8
:100F200018B14FF080500449086000BF002080F3E2
:100F3000118800BF10BD000004ED00E030B5204C6A
:100F4000E46804F00204022C01D11E4800E01D48B0
:100F50001B4CE46804F0010404B140080146184C3D
:100F6000E46804F00404042C05D1154C6468C4F34F
:100F70000324631C5943124CE468C4F3012424B1D4
:100F8000012C06D0022C13D10DE00E4C0E4D2C601E
:100F900013E00B4CE468C4F30314641CB1FBF4F2DB
:100FA000094C226009E04FF40044074D2C6004E036
:100FB00049F64044044D2C6000BF00BF30BD000026
:100FC0000000024000127A009400002000B50D4895
:100FD0000D49C8610846C0680020C86008464068DE
:100FE0000020486008468068002088600846006944
:100FF000002008610846406900204861FFF79EFF15
:1010000000BD00001000000800000240704770475B
:101010007047704710B510210F4800F055F80128AF
:1010200003D110210C4800F03FF80B4800F0B6F84F
:101030000A49087000230A4A0A48006802F008FEBC
:101040000748006838B14FF0805007490860BFF387
:101050004F8FBFF36F8F10BD008003400900002049
:101060000C0000200000002004ED00E002460B4BC5
:10107000986A0B4B9A4205D140F0807020F0FF0037
:10108000084308E0074B9A4205D140F0007020F475
:101090007F4040EA0120014B986270470000024007
:1010A0000000034000800340426C0A4342647047E2
:1010B00021B1026B42F00102026304E0026B4FF6C1
:1010C000FE731A40026370470246136C0B400BB16B
:1010D000012000E0002070471AB1836B0B4383634B
:1010E00002E0836B8B438363704700002DE9F04F70
:1010F00087B004460D4601A8FFF768FD019F24480C
:10110000866A2448844206D106F0070101208840FF
:10111000B7FBF0F708E02048844205D1C6F302216E
:1011200001208840B7FBF0F728688008B7FBF0F98A
:101130004FEA991809F03F0AB8000AEB8811B0FB92
:10114000F1FB2868ABEB0000C0012968B0FBF1F0AF
:1011500006900698022803D9002007B0BDE8F08F5A
:10116000C4F82480C4F828A0E66AA888E98808435F
:1011700029890843698908430643E662266B4FF6CE
:1011800080708643A889064326630120E5E70000B6
:101190000000024000000340008003400146086850
:1011A00080B27047704700000EB501214FF03070DB
:1011B000FFF798FE6846FFF79DFC01208DF80A00B6
:1011C00000208DF808008DF802008DF803008DF8DE
:1011D00004002020ADF8000069461048FFF78AFBA4
:1011E0000220ADF8000069460D48FFF783FB082098
:1011F000ADF8000069460A48FFF77CFB4020ADF8D7
:10120000000069460548FFF775FB0420ADF80000B3
:1012100069460448FFF76EFB0EBD000000000B405E
:1012200000800C4000800B409EB00FE004A908A095
:10123000FFF702F804A9684600F04CFC9DF8000096
:1012400018B905A000F0A6FB00BF00BFEEE7000044
:101250002535307300000000505554432121000013
:1012600070B50546002404E0E1B2284600F004F819
:10127000641C082CF8DB70BD70B505460E4631467F
:10128000284600F0B3FA0021284600F025FA002491
:101290000CE000BF284600F0BBF900F080000028F9
:1012A000F8D10021284600F009FB641C402CF0DB3B
:1012B00070BD08B5009000BF00994A1E0092002939
:1012C000FAD108BD10B50446012C04D180212C4868
:1012D000FFF702FC04E04FF480712948FFF7FCFBA4
:1012E00001212848FFF7EAFB4FF480612448FFF70B
:1012F000E5FB0520FFF7DDFF2348406840F03F0095
:10130000214948602148406840F00C001F4948606E
:101310003F2000F049FA0520FFF7CBFF02211948D2
:10132000FFF7DAFB0520FFF7C4FF02211548FFF79E
:10133000C5FB0520FFF7BDFF01211248FFF7BEFBEB
:101340004FF480610E48FFF7B9FB0F4840684FF635
:10135000C07108400C4948600C4840684FF6F37172
:1013600008400A494860012C04D180210448FFF755
:10137000A5FB04E04FF480710148FFF79FFB10BD0F
:1013800000000B4000800B4000800A4000800E40AF
:1013900008B500F053F800F02FF800BF012000F06E
:1013A00037F900F080000028F8D10120FFF78AFF0C
:1013B00000BF022000F02CF900F080000028F8D1D6
:1013C0000220FFF77FFF0120FFF74AFF0220FFF70F
:1013D00047FF01210648006800F0FEF8012003469F
:1013E000002211460090034800F0B0F808BD00004C
:1013F000900000203448000810B54FF400710E48EA
:10140000FFF75CFBC820FFF754FF4FF400710A4858
:10141000FFF762FB0520FFF74CFF00BF012000F043
:10142000F7F800F0900030B1022000F0F1F800F081
:1014300090000028F2D110BD00000B400EB5012134
:101440001C48FFF74FFD00208DF803008DF80400C5
:101450008DF805008DF806008DF807003F20ADF8E7
:10146000000000208DF802008DF8080001208DF8A2
:101470000A0003208DF8090069460F48FFF73AFA81
:101480000C20ADF8000069460C48FFF733FA4FF422
:10149000F060ADF8000001208DF8020069460848B0
:1014A000FFF728FA0320ADF8000069460548FFF76A
:1014B00021FA0EBD0000E02000800A4000800E40AE
:1014C00000000B4000800B402DE9F05F05460C4604
:1014D00091462046E11704EB5171C9104E1CCA46D3
:1014E0002046E11704EB5171C910A4EBC1014FEA8A
:1014F000C10B0AF0FF01F0B200F078F90BF0FF0128
:10150000F0B200F0E9F8202D06DBFF2D04DCA5F198
:1015100020004FEAC00801E04FF0000847460DE008
:1015200000BFF0B200F074F800F080000028F8D19D
:10153000054AD15DF0B200F0C1F97F1C08F1080046
:101540008742EDDBBDE8F09F344100082DE9FF4FF5
:1015500083B08046894692464FF0000B4E4635E0F8
:1015600054462FE02046E11704EB5171C9104D1C81
:101570000296E11704EB5171C910A4EBC101CA0036
:101580000192029EF1B2E8B200F030F9019AD1B2B4
:10159000E8B200F0A1F800270FE000BFE8B200F0C9
:1015A00037F800F080000028F8D10BEB070218F89C
:1015B0000210E8B200F082F97F1C082FEDDB0BF17E
:1015C000080B641C10988442CCDD761C0698864279
:1015D000C6DD07B0BDE8F08F70B505460E460024A5
:1015E00008E0285D00B907E0285D32462146FFF794
:1015F0006BFF641C102CF4DB00BF05E03246214673
:101600002020FFF761FF641C102CF7DB70BD000089
:1016100070B504462C4840684FF6C07108402A490E
:1016200048602A4840684FF6F371084027494860EF
:10163000012C04D180212648FFF74EFA04E04FF434
:1016400080712348FFF748FA01212248FFF736FA54
:101650004FF480611E48FFF73FFA0520FFF729FE8F
:1016600002211C48FFF738FA0520FFF722FE164832
:10167000006800F03F0015490968C02202EA011124
:1016800040EA01050520FFF714FE02211148FFF78B
:1016900015FA0520FFF70DFE01210E48FFF70EFA9F
:1016A0004FF480610A48FFF709FA012C04D1802128
:1016B0000748FFF703FA04E04FF480710448FFF78E
:1016C000FDF9284670BD000000800A4000800E40F1
:1016D00000000B4000800B4070B504460D46012C05
:1016E00004D180212C48FFF7F7F904E04FF4807112
:1016F0002948FFF7F1F901212848FFF7DFF94FF4F6
:1017000080612548FFF7DAF90520FFF7D2FD24486C
:10171000406840F03F00224948602248406840F05D
:101720000C002049486045F0400000F03DF80520DD
:10173000FFF7BFFD02211948FFF7CEF90520FFF79B
:10174000B8FD02211548FFF7B9F90520FFF7B1FDF3
:10175000134840684FF6C07108401149486011486D
:1017600040684FF6F37108400E49486001210B486C
:10177000FFF7A4F94FF480610748FFF79FF9012CA8
:1017800004D180210448FFF799F904E04FF48071F7
:101790000148FFF793F970BD00000B4000800B403B
:1017A00000800A4000800E400E4909684FF6C07262
:1017B00011400C4A11601146096800F03F021143C4
:1017C000084A1160084909684FF6F3721140064A49
:1017D0001160114609680C2202EA20121143024AE4
:1017E0001160704700800A4000800E4070B50446CA
:1017F0000D46012C04D180212C48FFF76DF904E03F
:101800004FF480712948FFF767F901212848FFF755
:1018100055F94FF480612548FFF750F90520FFF78F
:1018200048FD2448406840F03F0022494860224873
:10183000406840F00C002049486045F0B800FFF7D0
:10184000B3FF0520FFF735FD02211948FFF744F9E2
:101850000520FFF72EFD02211548FFF72FF905207F
:10186000FFF727FD134840684FF6C0710840114943
:101870004860114840684FF6F37108400E494860CF
:1018800001210B48FFF71AF94FF480610748FFF771
:1018900015F9012C04D180210448FFF70FF904E069
:1018A0004FF480710148FFF709F970BD00000B404B
:1018B00000800B4000800A4000800E4070B5044656
:1018C0000D46012C04D180212C48FFF705F904E0D6
:1018D0004FF480712948FFF7FFF801212848FFF7EE
:1018E000FBF84FF480612548FFF7E8F80520FFF783
:1018F000E0FC2448406840F03F002249486022480C
:10190000406840F00C00204948602846FFF74CFF33
:101910000520FFF7CEFC02211948FFF7DDF805206E
:10192000FFF7C7FC02211648FFF7C8F80520FFF7AC
:10193000C0FC144840684FF6C07108401149486027
:10194000114840684FF6F37108400F494860012183
:101950000B48FFF7B3F84FF480610848FFF7AEF883
:10196000012C04D180210548FFF7A8F804E04FF4CA
:1019700080710248FFF7A2F870BD000000000B4024
:1019800000800B4000800A4000800E4000BFFEE750
:1019900070470000014A024900F069B8B51A000812
:1019A0009C00002030B528B1144C031F0020216892
:1019B0000A4605E0084630BD9A4203D810465268F0
:1019C000002AF9D1002800D041680BD00468A3EBAD
:1019D0000005A54204D11B681C440346046002E0D4
:1019E000436000E023603AB11C68D51AA54203D1D8
:1019F00015682C441C6052685A6030BDA00000205D
:101A00002DE9F04782460F4C10480D4E0E4F001B3B
:101A10004FF0000820F007054FF0010900221146A1
:101A2000504600F08DF9002802D1306810B1002036
:101A3000BDE8F0873C60C4E90058C6F80090EDE7C7
:101A4000A4000020F4510020A0000020F05300204A
:101A500002E008C8121F08C1002AFAD17047704777
:101A6000002001E001C1121F002AFBD170472DE9BF
:101A7000F04116460F460446002503E03946B047BC
:101A8000641C6D1C20780028F8D12846BDE8F08140
:101A900038B5044600235A1E69460548006801F01F
:101AA0005DFF012802D19DF8000038BD0020FCE751
:101AB0000000002038B504460D46E0B20090002337
:101AC0001A4669460248006802F036F8204638BDDA
:101AD00004000020F0B587B004460E4605228CA114
:101AE0003046FEF799FB20B900208B490870012091
:101AF00020708948007800284BD08848006800F0A2
:101B0000A8FF8749086031468548006801F08BF9D5
:101B100000283AD00020804908708148006801F010
:101B200042F9074605AA01217D48006801F02AF91B
:101B300001A8DDE90512FEF75CFB9DF8040060706A
:101B400005AA02217648006801F01CF901A8DDE928
:101B50000512FEF74EFB04F1090272A101A8FEF77F
:101B60007BFB05AA03216E48006801F00BF901A870
:101B7000DDE90512FEF73DFB04F10A0269A101A8A7
:101B8000FEF76AFB0020207000BF6548006801F086
:101B9000E8F861480078002843D06348006800F006
:101BA00058FF5F49086031465D48006801F03BF925
:101BB000002832D00020584908705948006801F0C8
:101BC000F2F8074605AA01215548006801F0DAF845
:101BD0000699481CFFF714FF05462846DDE9051263
:101BE000FEF707FB656000206168069A8854069836
:101BF000207205AA02214A48006801F0C3F801A832
:101C0000DDE90512FEF7F5FA04F1090245A101A884
:101C1000FEF722FB0220207000BF4148006801F05F
:101C2000A0F83D48007800286AD04048006800F0DD
:101C300010FF3B49086031463948006801F0F3F86D
:101C4000002859D00020344908703548006801F058
:101C5000AAF8074605AA01213148006801F092F868
:101C60000699481CFFF7CCFE05462846DDE905121B
:101C7000FEF7BFFA65600698207200206168069A38
:101C8000885405AA02212648006801F07BF801A8C3
:101C9000DDE90512FEF7ADFA04F1090221A101A860
:101CA000FEF7DAFA05AA03211D48006801F06AF878
:101CB00001A8DDE90512FEF79CFA04F10C0219A156
:101CC00001A8FEF7C9FA05AA04211548006801F029
:101CD00059F801A8DDE90512FEF78BFA14A101A855
:101CE000069AFEF799FA10B90020A07301E00120CE
:101CF000A0730320207000BF0948006801F031F88C
:101D00000548007808B10420207007B0F0BD00003D
:101D1000434C4541520000001C00002010000020F0
:101D2000200000202564000014000020180000207E
:101D30004C4546540000000010B500F00DFD10BDEC
:101D40002DE9F0410B3020F00706104D19E0206816
:101D5000B04215D3B0420AD9871B201DD4F80480A5
:101D6000FEF723FAA019C0E90078286004E0606853
:101D70002860201DFEF719FA201D2660BDE8F081BD
:101D8000251D2C68002CE2D10020F7E7A0000020E0
:101D90001CB5FFF7D1FFFFF707FAFFF7F9FA01F0DB
:101DA0006FFB00220121802001F0BCFD0B4908607F
:101DB00000220121C80201F0B5FD09490860002098
:101DC000022103468022CDE9001006A1074801F058
:101DD000B1FF01F011FD00201CBD0000000000203B
:101DE000040000205461736B3300000029120008C6
:101DF0002DE9F04105460E4616480768164800686A
:101E0000001D01F0A9FB681C38B936B11248016801
:101E1000091D124801F0DFFB1AE07C190E4800682A
:101E20004460BC4207D20C480168091D0C48006898
:101E300001F0B7FB0CE008480168091D094800687B
:101E400001F0AFFB08480068844201D206480460F4
:101E5000BDE8F0815400002040000020B051002077
:101E600048000020440000207000002010B5044607
:101E700001F0BEFB22480068401C2149086021484F
:101E8000006840B91F4804600846006801280DD169
:101E900000F0AAF90AE01C48006838B9194800683F
:101EA000C06AE16A884201D8164804601748006891
:101EB000401C164908601649E06A0968884202D940
:101EC0001349E06A0860E16A01EB8101114A02EB03
:101ED0008100211D01F07FFB01F09CFB0A48006896
:101EE00068B108480068C06AE16A884207D24FF0CA
:101EF000805009490860BFF34F8FBFF36F8F10BD4B
:101F000050000020400000205C0000206C000020F9
:101F100058000020FC50002004ED00E010B501F056
:101F200067FB10480068D0B90F4801F02AFB0F4842
:101F300001F027FB0C480E4908600C480D49086069
:101F400000220C210A2001F0EDFC06490860084639
:101F5000006820B108A10348006801F095FB01F07A
:101F600059FB10BD84000020C4510020D85100202E
:101F70007C00002080000020546D725100000000A1
:101F800070B523E001F070FC1348006808B9012027
:101F900000E00020054602F005F8BDB901F028FB7D
:101FA0000D48C068C468201D01F0D6FA0B480068CF
:101FB000401E0A4908600A480068401E0849086037
:101FC00001F028FB204600F060F800BF04480068DC
:101FD0000028D7D170BD00009C5100205000002087
:101FE0004C00002070B504460D46206C70B1216C89
:101FF000E0680844E0606168E068884201D32068D6
:10200000E0602846226CE168FEF7CFF870BD2DE94C
:10201000F04104460F4615464FF00008A66B206CB1
:1020200040B9206860BB606801F04CFF804600202A
:10203000606025E07DB93946226CA068FEF7B5F8EE
:10204000216CA0680844A060D4E90110884217D32D
:102050002068A06014E03946226CE068FEF7A5F81D
:10206000216CE068401AE0602168E068884203D291
:10207000216C6068401AE060022D01D106B1761E25
:10208000701CA0634046BDE8F08110B50446206B8B
:1020900001F0D0FA204601F0CDFA10BD0146084A01
:1020A000126812680AB9012200E000220A600A6878
:1020B00022B9034A1268D268106800E00020704715
:1020C0007C0000200A4A22F007000A4A1060002221
:1020D000084B5A6044F6F872074B5A6000221A60A7
:1020E000014644F6F8724A601A460A6070470000DA
:1020F000B4000020240000202C00002000BFFFF7C7
:102100003FFF07480068012807D94FF08050054974
:102110000860BFF34F8FBFF36F8F01F031FAEEE726
:10212000FC50002004ED00E02DE9F04106460D468C
:1021300017469846069C0DB9246000E02760E663C8
:1021400025640121204601F0B7FCBDE8F0812DE9AE
:10215000FF5F80460F469146DDE90E6A109CA9F1AB
:102160000100216B01EB800B2BF0070B002507E032
:10217000795D04F134004155785D00B902E06D1CD1
:10218000102DF5D300BF002143200155052E00D3AB
:102190000426E66266640020A064201D01F0FEF9BA
:1021A00004F1180001F0FAF92461C6F10500A061FC
:1021B0006462002505E0002104F14C0040F8251080
:1021C0006D1C052DF7D30020206684F8640041467D
:1021D0005846039A00F078FA2060BAF1000F01D057
:1021E000CAF80040BDE8FF9F10B5002407E004EBEB
:1021F00084010F4A02EB810001F0C3F9641C052C35
:10220000F5D30C4801F0BDF90B4801F0BAF90B48C1
:1022100001F0B7F90A4801F0B4F90A4801F0B1F940
:1022200004480949086004480849086010BD0000D6
:10223000FC50002060510020745100208851002083
:102240009C510020B0510020440000204800002094
:102250002DE9F04104460D4616461F464FF0000892
:1022600065602461B5420CD8F01BA169884202D395
:102270004FF0010811E0211D0948006801F091F9B3
:102280000BE0BE4204D2BD4202D34FF0010804E08D
:10229000211D0448006801F084F94046BDE8F08142
:1022A000800000207C00002070B5054601F0A0F9F8
:1022B000A86B08B9012400E0002401F0ABF9204626
:1022C00070BD70B5054601F093F9A86BE96B8842C3
:1022D00001D1012400E0002401F09CF9204670BDEA
:1022E000F8B505460E4610480068C068C468201D51
:1022F00001F032F9E069012811D1A06941192B469A
:1023000032462046FFF7A4FF48B1002003462A4684
:1023100001460090204601F0D7FE074600BF204648
:10232000616A8847F8BD00007C00002070B586B067
:102330004DE0039800284ADB059C606908B901203C
:1023400000E0002010B9201D01F006F902A800F0FD
:102350009FF8054603980A2837D2DFE800F0090500
:10236000072527320608262800BF00BF00BF00BF90
:102370000498A269811803462A462046FFF768FFA1
:1023800088B12046616A8847E06901280BD10020A6
:1023900000900498A169421800231946204601F0D4
:1023A00093FE064600BF11E000BF0FE000BF049897
:1023B000A061A06941192B462A462046FFF748FF35
:1023C00004E0204601F036F900E000BF00BF002322
:1023D0001A4603A90348006801F0C0FA0028A8D1F2
:1023E00006B070BD84000020F8B505460C4601F02B
:1023F0003BFA684600F04CF80646009820BB44B90A
:10240000B54206D801F0CEFD31462846FFF768FFF9
:102410001CE03CB10E480068006808B9012000E0EB
:1024200000200446A91B22460A48006801F042F930
:1024300001F0B8FD50B94FF0805007490860BFF374
:102440004F8FBFF36F8F01E001F0ACFDF8BD0000CE
:10245000800000208400002004ED00E00A490968A3
:10246000096809B9012100E0002121B14FF0FF31D5
:10247000064A116006E004490968C968C868034A49
:102480004168116070470000440000207000002087
:1024900070B5044601F08EFC054607480068854289
:1024A00004D200F00BF80120206001E00020206041
:1024B00001480560284670BD8C0000202DE9F843D6
:1024C00026E01D480068C06805681B480068C068B1
:1024D000C468201D01F040F82046616A8847E06921
:1024E000012815D1A0694619AE4207D9666024615A
:1024F000211D1148006801F054F809E0002003464E
:102500002A4601460090204601F0DEFD804600BFCD
:1025100009480068006808B9012000E00020002890
:10252000CFD005480768054800680349086003489C
:102530000760BDE8F88300007C00002080000020D8
:1025400000BFBF2080F31188BFF34F8FBFF36F8FA1
:1025500000BF00BFFEE708B500BF6846FFF79EFD5D
:10256000044620460099FFF73FFFFFF7DFFEF4E740
:1025700070B5044601F03CF894F9455010E0606AEB
:1025800008B9012000E0002038B904F1240001F06E
:10259000C9FC18B101F0B4F800E003E0681E45B2D0
:1025A000002DECDC00BFFF2084F8450001F032F87C
:1025B00001F01EF894F9445010E0206908B9012098
:1025C00000E0002048B904F1100001F0ABFC08B1B4
:1025D00001F096F8681E45B200E001E0002DECDC49
:1025E00000BFFF2084F8440001F014F870BD000023
:1025F0002DE9F04104464FF0000801F035F9264876
:10260000006820B9FFF75EFD01202349086044B14E
:10261000083404F0070020B104F00700C0F10800FE
:102620000444002C32D044F6F87084422ED21B4F62
:102630003846056801E02F462D686868A04202D23E
:1026400028680028F7D1164885421FD0386800F165
:102650000808286838606868001B102810D92E19EF
:102660006868001B70606C6071680C4800E000686E
:10267000026852688A42FAD302683260066000BF7C
:10268000084968680968081A0649086001F08AFC68
:102690004046BDE8F0810000380000202400002002
:1026A0002C000020340000200648006830B10549A5
:1026B000096801F14800896C491C01600148006803
:1026C0007047000040000020001F4FF0807303603F
:1026D000001F21F001030360001F034B0360143847
:1026E0000260203870470000412500082DE9F047BE
:1026F00004008A4616D054F8047CD4F800903E1F9B
:10270000564500D956462046FFF74CF905468846FF
:10271000324621465046FFF713FB40B1C0F8009007
:10272000BDE8F087BDE8F0470846FFF769B944E91E
:10273000017955B129686A18211F8A4202D9611BA3
:10274000091F2960C5F80480EAE7024AC2F8008040
:10275000E6E70000A000002010B50120FEF78AFB8C
:10276000FEF7A6FB012814D109210220FEF7D8F9B3
:102770000120FEF7CFF9FEF7F3F9012809D1002077
:10278000FEF70EFA0120FEF705FA4FF48070FEF70F
:1027900013FAFEF7D3FB10BD70B504460D464FF497
:1027A0008371204600F013FE0646606900EB0610B8
:1027B0004560304670BD2DE9F04104460E46A068E4
:1027C00000785C2875D1A068401CA060A0680078E3
:1027D00064285BD01CDC532857D00CDC43285AD02B
:1027E00004DC41284DD0422879D164E044284ED001
:1027F000502874D151E0612842D004DC572842D0DF
:1028000058286CD145E0622854D0632867D141E054
:102810006638132863D2DFE800F0236262626262E6
:1028200041620A623F621B3713422B353B00A068AE
:10283000401CA0600A21204600F0C9FDBDE8F081DF
:10284000A068401CA0600921204600F0C0FDF5E70B
:10285000A068401CA0600D21204600F0B8FDEDE707
:10286000A068401CA0600C21204600F0B0FDE5E708
:10287000A068401CA0600B21204600F0A8FDDDE709
:1028800000BF00BF00BF00BF00BF00BF00BF00BF50
:1028900000BF00BF00BF00BF00BF00BF00BFA068F7
:1028A0000578A068401CA06029462046FFF774FF09
:1028B000C4E71EE000BF8EB94FF48671204600F0D9
:1028C00086FD0746A0680078616901EB0711486042
:1028D000A068401CA0603846B0E700E000BFA068D8
:1028E0000578A068401CA0602946204600F06FFDD6
:1028F000A4E7FDF74DFC0068A1680978405C00F092
:102900003E0010B9042084F82C00A0680578A06867
:10291000401CA0602946204600F059FD8EE72DE9B5
:10292000F04704464FF0FF373D46A06800785E2828
:1029300009D140F20711204600F049FD0746A06882
:10294000401CA06005E040F20511204600F03FFD6C
:102950000746A06800785D2802D1052084F82C0085
:10296000B84652E0A06800782D283BD1681CC0B35F
:10297000A168481CA06008785D2802D1062084F870
:102980002C004FF48471204600F021FD0646A0681B
:102990000078A84202DA072084F82C00606900EB76
:1029A00005100068B0F5837F02D1082084F82C0060
:1029B000606900EB05100068616901EB0611486071
:1029C000204600F07DF98146606900EB0610C0F8F2
:1029D0000890606900EB0810C660B0464FF0FF3504
:1029E00013E0FFE7681C58B12E46606900EB081041
:1029F000C660B04601212046FFF7DDFE054604E033
:102A000001212046FFF7D7FE0546A06800785D2823
:102A100003D02168A0688842A4D1681C40B1284630
:102A2000616901EB0811C86080464FF0FF3500BFB7
:102A3000606900EB0710C068616901EB071148602D
:102A40004FF0FF30616901EB0711C8603846BDE8FF
:102A5000F08770B505463020FEF7D2FF044600200F
:102A600060602060A5602846FDF7CFFBA061A169EA
:102A70000801FEF7C5FF60610020E061606220622E
:102A80004FF48171204600F0A2FCE060002084F841
:102A90002C00204600F08AF90646E168606900EBE8
:102AA00001104660A068007810B10A2084F82C005C
:102AB000216AC800FEF7A4FF6062226AD100606A42
:102AC000FDF78CFB204670BD2DE9F04704464FF022
:102AD000FF36A068007824283BD0282804D02E2870
:102AE00041D05B2849D128E0A068401CA060A068C4
:102AF00000783F280DD1A068401CA0603A212046F4
:102B000000F024F940F20311204600F060FC054675
:102B100005E04FF48171204600F059FC054620463F
:102B200000F044F90746606900EB051047602E4647
:102B30002921204600F00AF925E0A068401CA06089
:102B40002046FFF7ECFE06465D21204600F0FEF829
:102B500019E0A068401CA0604FF48571204600F089
:102B600036FC06460FE0A068401CA0604FF482715E
:102B7000204600F02CFC064605E000212046FFF729
:102B80001AFE064600BF00BF4FF000090027BA46F4
:102B9000A06800782A2806D02B280DD03F2813D013
:102BA0007B2856D119E000274FF6FF7AA068401C19
:102BB000A0604FF001094CE001274FF6FF7AA068B2
:102BC000401CA060B94644E000274FF0010AA0680D
:102BD000401CA0604FF001093BE0A068401CA060D1
:102BE000FDF7D6FA0068A1680978405C202802D079
:102BF000032084F82C00204600F018FC87B2A0685F
:102C000000782C2806D07D281BD1BA46A068401C2D
:102C1000A0601AE0A068401CA0604FF6FF7AFDF7A4
:102C2000B7FA0068A1680978405C202804D12046E2
:102C300000F0FCFB1FFA80FA7D21204600F086F8A8
:102C400003E0012084F82C0000BF00BF4FF0010911
:102C500000BF00BFB9F1000F13D04FF480712046C0
:102C600000F0B5FB05464FF48078606900EB051075
:102C700046604AEA0740616901EB051188602E460B
:102C800000BFA06800787C2817D0A06800782928A9
:102C900013D0A06800782A280FD0A06800782B28CD
:102CA0000BD0A068007840B12046FFF70DFF054625
:102CB000606900EB0610C56000BF3046BDE8F087D4
:102CC00010B50446A06800785C282ED1A068401C8E
:102CD000A060A0680078722818D004DC66281AD09A
:102CE0006E281DD108E074280BD0762818D1A06872
:102CF000401CA0600B2010BDA068401CA0600A20F2
:102D0000F9E7A068401CA0600920F4E7A068401C17
:102D1000A0600D20EFE7A068401CA0600C20EAE74F
:102D2000A168481CA0600878E5E7FDF731FA006863
:102D3000A1680978405C00F03E0010B9042084F8D6
:102D40002C00A168481CA0600878D4E7826812783B
:102D50008A4202D0022280F82C208268521C8260B3
:102D6000704710B5044664B1606910B16069FEF740
:102D700019FE606A10B1606AFEF714FE2046FEF785
:102D800011FE10BD10B50346002902DB186A884207
:102D900001DC002010BD586A00EBC10411CCC2E96F
:102DA00000040120F6E70146086A70472DE9F0416A
:102DB00004464FF0FF35A06800785E2808D1A0686F
:102DC000401CA06040F20B11204600F000FB0546BD
:102DD0002046FFF779FE0646681C20B1606900EBCB
:102DE0000510C66000E03546A06800787C2817D141
:102DF000A068401CA06040F20111204600F0E7FAF4
:102E00000746606900EB071045602046FFF7CEFFDC
:102E10008046606900EB0710C0F808803D4600BF9F
:102E20002846BDE8F08170B504460D460026656071
:102E30002846FDF7EAF9284420600020A06200231C
:102E40002A462046616900F0FDF8064616B1206862
:102E5000B04201D0002070BD0120FCE770B50546EE
:102E60000C46632D76D012DC532D58D008DC412D52
:102E700029D0432D6FD0442D64D0502D6CD19AE0D1
:102E8000572D38D0582D74D0612DF7D110E0732D07
:102E90003ED006DC642D4BD06C2D74D0702DEDD15E
:102EA00082E0752D70D0772D18D0782DE6D157E0BF
:102EB000FDF76EF90068005D00F0980008B1012090
:102EC00070BD0020FCE7FDF763F90068005D00F0CD
:102ED000980008B90120F3E70020F1E7FDF758F961
:102EE0000068005D00F0380008B95F2C01D10120B6
:102EF000E6E70020E4E7FDF74BF90068005D00F02D
:102F0000380018B95F2C01D00120D9E70020D7E79D
:102F1000FDF73EF90068005D00F00100D0E7FDF725
:102F200037F90068005D00F0010080F00100C7E79C
:102F3000FDF72EF90068005D202801D10120BFE7D0
:102F40000020BDE7FDF724F90068005D202805D0CA
:102F50000120B5E719E01FE043E00AE00020AFE7F9
:102F6000FDF716F90068065D86EA8600C0F3C0101A
:102F7000A6E7FDF70DF90068065D86EA86000121E7
:102F800021EAD0109CE71EE024E0FDF701F900687B
:102F9000005DC0F3801093E7FDF7FAF80068005D6C
:102FA000012121EA90108BE7FDF7F2F80068005D3F
:102FB000C0F3400084E7FDF7EBF80068005D0121F5
:102FC00021EA50007CE7FDF7E3F80068005DC0F3FC
:102FD000C00075E7FDF7DCF80068005DC0F3001085
:102FE0006EE700206CE770B506460C46154600BF3C
:102FF0002068B0F5837F0BD0B0F5847F10D1606876
:10300000A84204DCA068A84201DB012070BD0DE0ED
:1030100029466068FFF722FF08B10120F6E705E0C6
:103020002068A84201D10120F0E700BF00BFE0689E
:10303000401C28B17069E16800EB0110041ED7D173
:103040000020E3E72DE9F04F85B004460E46154613
:103050009B46306804900498A0F580700D2871D2CA
:10306000DFE800F0079DD0D1FBFAF9F87070F7F6B1
:10307000F5004FF000084FF6FF71B06801EA2049F3
:1030800030891FFA80FA002703950295F068401CEA
:1030900020B16069F16800EB011800E0D8465FE0FC
:1030A0006069726800EB021143462046039AFFF7FD
:1030B000C9FF039000B959E07F1C03980290B8F152
:1030C000000F47D0D8F80000B0F5807F0BD1D8F8BA
:1030D0000000B0F5807F3DD14FF6FF71D8F80800B1
:1030E00001EA204078B300200090D8F80C00401C82
:1030F00030B16069D8F80C1000EB011000900CE0C2
:10310000BBF1000F09D0DBF80C00401C28B160694E
:10311000DBF80C1000EB0110009041462046009BAC
:10312000039AFFF78FFF0190019890B1D14502D12A
:10313000B94500D11AE04F4506DB4FF6FF708245D6
:1031400002D113E03AE105E04F4502DB574500DCD0
:103150000CE000BF21680398814200D806E000BF60
:103160004FF6FF7087429BD0574599DB00BFD14592
:1031700005D1B94503D1029805B0BDE8F08F4F45A0
:1031800005DB4FF6FF70824501D10298F4E74F4509
:1031900003DB574501DC0298EEE70020ECE7A84688
:1031A0006069716800EB011709E0F868401C20B104
:1031B0006069F96800EB011701E04046DCE7002395
:1031C000424639462046FFF73DFFB0F10008ECD1FA
:1031D000A8466069B16800EB011709E0F868401C77
:1031E00020B16069F96800EB011701E04046C3E7D0
:1031F0000023424639462046FFF724FFB0F100087D
:10320000ECD1B9E700BF6069716800EB0118A9460D
:103210004FF0FF3740F20311306888420AD0B0689F
:10322000A16A884206D1A76A606A40F83790A06A0E
:10323000401CA06200BF4FF0000AD8F80C00401CF0
:1032400060B16069D8F80C1000EB011A07E034E0B7
:1032500078E07EE087E0A7E086E081E0DA4653464A
:103260004A4641462046FFF7EDFEB0F100090BD17A
:10327000781C38B10020616A41F83700616A01EBBF
:10328000C7014860002077E7D8F80C00401C38B12F
:103290006069D8F80C1000EB0110B0F10008CAD139
:1032A000781C40B1606A50F83700A9EB0000616AF1
:1032B00001EBC701486048465EE76068A84207D155
:1032C000FCF766FF00682978405C00F0010058B305
:1032D0002068A84208D1FCF75BFF006815F8011CC4
:1032E000405C00F00100F8B1FCF752FF006829785B
:1032F000405C00F0010038B9FCF74AFF00686978CB
:10330000405C00F0010078B9FCF742FF00682978C2
:10331000405C00F0010070B1FCF73AFF006869788A
:10332000405C00F0010030B97068622801D1284685
:1033300022E7002020E77068622801D100201BE707
:10334000284619E76068A84201D1284614E7002002
:1033500012E72068A84201D128460DE700200BE7BC
:103360006D1C284608E700BF6069736800EB031115
:103370002A782046FFF737FE40B140F20511049845
:10338000884201D1012009E0002007E040F2071146
:103390000498884201D1012000E0002010B16D1C8A
:1033A0002846E9E60020E7E629787068FFF756FD31
:1033B00010B16D1C2846DFE60020DDE62878316874
:1033C000884201D00020D7E66D1C2846D4E62DE9BE
:1033D000FF4104460D4600954FF0FF3001900290EA
:1033E0000390B5F5817F04D1206A0290206A401CC9
:1033F0002062D4E90610401C814208DAA06940002E
:10340000A061A26911016069FFF770F96061E1696B
:10341000481CE061606900EB01109DE88E008EC0E1
:10342000E069461E304604B0BDE8F08170B5044640
:10343000A0680078A0F130050A26A068401CA060B2
:1034400011E0A168481CA0600878303805EB8501C0
:1034500000EB41050948864202D1092084F82C007E
:1034600006EB86004600FCF793FE0068A168097829
:10347000405C2028E5D0284670BD000000CA9A3B79
:1034800000B587B001214807FDF72CFD0121480751
:10349000FDF728FD00208DF813008DF814008DF83D
:1034A00015008DF816008DF8170003208DF8180010
:1034B0008DF8190001208DF81A0000208DF81200F7
:1034C0000120ADF8100004A92148FDF713FA0120EE
:1034D0008DF812000220ADF8100004A91C48FDF779
:1034E00009FA01218020FDF7FDFC00211948FDF7B4
:1034F000BDFD0720002809DB00F01F0201219140DB
:103500004209920002F1E022C2F8001100BF4FF41C
:10351000E13000906020ADF804000020ADF8060016
:10352000ADF80800ADF80A004FF44070ADF80C009B
:1035300069460848FDF7DAFD012210210548FDF72C
:10354000CBFD01210348FDF7B3FD07B000BD00002E
:1035500000800E400080034001460A69D1E9013035
:103560009860D1E9010358605068884201D18868A9
:103570005060002008611068401E1060106870479D
:10358000704700F1080141604FF0FF31816000F1A8
:103590000801C160016100210160704700210161E3
:1035A000704710B502460B685C1C0CB9106907E047
:1035B00002F1080000E04068446824689C42FAD99F
:1035C00044684C604C68A160886041600A6114687E
:1035D000641C146010BD42684A6093688B609368F5
:1035E00059609160086103685B1C036070470000CC
:1035F00000BFBF2080F31188BFF34F8FBFF36F8FE1
:1036000000BF03480068401C014908607047000083
:103610003C00002006480068401E05490860084636
:10362000006820B9002080F3118800BF00BF7047F8
:103630003C00002070B506463546B6B1083D2C4624
:1036400000F012F96168094800E0006802685268F9
:103650008A42FAD3026822600460054960680968FA
:1036600008440349086000F09DFC70BD2400002060
:103670003400002003484FF0E02148610720086132
:10368000704700007F380100024600200BE0084B25
:1036900053F8303033B9064B43F8301003EBC00316
:1036A0005A6002E0401C0A28F1D300BF70470000B6
:1036B000AC5000202DE9F04105460E4617462C4639
:1036C000FFF796FF94F94400401C10B9002084F8DD
:1036D000440094F94500401C10B9002084F84500CE
:1036E000FFF798FFA06B28B93A46314604F1240051
:1036F00000F01CF82046FEF73BFFBDE8F08100001B
:1037000001200149086070476400002070B505463B
:103710000C460548016818312846FFF742FF012191
:103720002046FEF765FB70BD4000002070B50646E0
:103730000D4614460648016818313046FFF74BFF26
:103740000CB14FF0FF3521462846FEF751FB70BD06
:103750004000002070B505462C46002D39D01D498B
:10376000E06A0968C96A884233D2A06900F0004063
:1037700028B918480068C06AC0F10500A061E16A74
:1037800001EB8101144A02EB81016069884201D199
:10379000012000E00020C0B1201DFFF7DDFE0D4834
:1037A0000068C06AE0620D49E06A0968884202D98F
:1037B0000A49E06A0860E16A01EB8101064A02EB0E
:1037C0008100211DFFF707FF03E002480068C06A7F
:1037D000E06270BD40000020FC5000205800002036
:1037E00003490968016003490968416070470000A6
:1037F00068000020540000201CB5144800210B462E
:103800008022CDE9001012A1134800F093FA04467B
:10381000012C02D100F03AFC0446012C14D100BF67
:10382000BF2080F31188BFF34F8FBFF36F8F00BFAE
:103830004FF0FF3009490860012009490860002065
:103840000849086000F054F81CBD00007400002016
:1038500049444C4500000000FD2000087000002095
:103860005C0000205400002002480068401C014910
:1038700008607047780000201848006818B10120DF
:103880001749086028E000201549086015480168BC
:1038900000E0491E01EB8100134A52F8200008B9EC
:1038A000012000E000200028F3D101EB81020E4B43
:1038B00003EB820042685268426000F108024368EC
:1038C000934202D14268526842604268D268074B14
:1038D0001A600448016000BF7047000078000020B3
:1038E0006400002058000020FC5000204000002010
:1038F00010B50A48006840F47F000849086008468F
:10390000006840F07F400860FFF7B4FE00200449E3
:103910000860FCF7F1FB002010BD000020ED00E086
:103920003C0000202DE9F84307460D4690460DB9AE
:10393000002601E007FB05F606F14800FEF758FEF9
:10394000044644B104F1480943464A4629463846EC
:103950000094FEF7E9FB2046BDE8F8832DE9FF4718
:1039600082B0054689461E464FF0000A2C4600BF2D
:10397000FFF73EFED4F83880B8F1000F3BD0E7687F
:1039800049462046FEF72EFBDEB9A8F10100A063F0
:10399000206810B9FEF788FE6060206908B9012030
:1039A00000E0002008BB04F1100000F0BBFAE0B119
:1039B0004FF080503F490860BFF34F8FBFF36F8FC8
:1039C00013E0E760606A08B9012000E0002060B9F8
:1039D00004F1240000F0A6FA38B14FF080503549C8
:1039E0000860BFF34F8FBFF36F8FFFF713FE012007
:1039F00006B0BDE8F087049818B9FFF70BFE002069
:103A0000F6E7BAF1000F04D16846FFF7E9FE4FF080
:103A1000010AFFF7FFFDFFF727FFFFF7E9FD94F924
:103A20004400401C10B9002084F8440094F945007B
:103A3000401C10B9002084F84500FFF7EBFD04A9F5
:103A4000684600F049F940BB2046FEF72DFCF0B176
:103A5000206830B9FFF7CCFD6068FFF77BFEFFF709
:103A6000D9FD04F124000499FFF750FE2046FEF72B
:103A70007FFD00F097FA00287FF47AAF4FF0805076
:103A80000C490860BFF34F8FBFF36F8F70E720467C
:103A9000FEF76EFD00F086FA6AE72046FEF768FD45
:103AA00000F080FA2046FEF7FFFB0028EED0002051
:103AB0009EE7000004ED00E070B505460E462C467A
:103AC000FFF796FDD4E90F12206801FB0200606049
:103AD0000020A0632068A060E06B401E226C21687B
:103AE00000FB0210E060FF2084F8440084F84500E9
:103AF0009EB9206908B9012000E00020A8B904F1AE
:103B0000100000F00FFA80B14FF0805009490860B2
:103B1000BFF34F8FBFF36F8F07E004F11000FFF783
:103B200030FD04F12400FFF72CFDFFF773FD0120A9
:103B300070BD000004ED00E02DE9FF4383B00746AF
:103B400088461D464FF000093C4600BFFFF750FD78
:103B5000A06BE16B884201D3022D28D12A46414651
:103B60002046FEF754FA0646606A08B9012000E0D4
:103B7000002068B904F1240000F0D4F988B14FF0B6
:103B8000805032490860BFF34F8FBFF36F8F08E05A
:103B90003EB14FF080502D490860BFF34F8FBFF307
:103BA0006F8FFFF737FD012007B0BDE8F083059860
:103BB00018B9FFF72FFD0020F6E7B9F1000F04D187
:103BC00001A8FFF70DFE4FF00109FFF723FDFFF7F6
:103BD0004BFEFFF70DFD94F94400401C10B9002086
:103BE00084F8440094F94500401C10B9002084F882
:103BF0004500FFF70FFD05A901A800F06DF8F0B929
:103C00002046FEF75EFBA0B104F110000599FFF716
:103C10007DFD2046FEF7ACFC00F0C4F9002895D1EC
:103C20004FF0805009490860BFF34F8FBFF36F8F8B
:103C30008CE72046FEF79CFC00F0B4F986E72046AE
:103C4000FEF796FC00F0AEF90020ADE704ED00E0D1
:103C50002DE9F05F05468A4616461F462C4600BFF2
:103C6000BF21EFF3118081F31188BFF34F8FBFF3B2
:103C70006F8F00BF8146A06BE16B884201D3022F9A
:103C800020D194F945B03A4651462046FEF7BFF997
:103C90000BF1010070B9606A08B9012000E0002052
:103CA00068B904F1240000F03DF940B13EB10120B3
:103CB000306004E00BF1010040B284F845004FF0A1
:103CC000010801E04FF0000800BF89F3118800BF30
:103CD0004046BDE8F09F000070B504460D46FFF772
:103CE00087FC124802682868401C08B9002619E0C1
:103CF0000F4920680968884204D06068904201D862
:103D000001260FE06068101A2968884209D22868E5
:103D10006168511A401A28602046FFF761FD0026AD
:103D200000E00126FFF776FC304670BD540000200D
:103D3000680000202DE9FF4F85B080468946174670
:103D4000DDE912ABB800FEF753FC064656B1682019
:103D5000FEF74EFC04460CB1266304E03046FFF744
:103D600069FC00E000247CB10020CDE900ABCDE986
:103D700002403A4649464046089BFEF7E8F920468D
:103D8000FEF774F8012501E04FF0FF35284609B031
:103D9000BDE8F08F0549096809B9012005E004492B
:103DA000096809B9022000E0002070475C0000208B
:103DB0007800002001490868704700005400002086
:103DC0002DE9F041002734480068002857D13348D6
:103DD0000068451C314805608DB93148D0F8008035
:103DE000304800682E4908602E48C0F800802E48F0
:103DF0000068401C2C490860FEF730FB00BF2B48D0
:103E0000006885423AD300BF25480068006808B9B9
:103E1000012000E0002020B14FF0FF30234908606E
:103E20002BE01F480068C068C4686668B54202D2CB
:103E30001E48066021E0201DFFF78EFBA06A18B126
:103E400004F11800FFF788FB1949E06A0968884205
:103E500002D91749E06A0860E16A01EB8101154A5D
:103E600002EB8100211DFFF7B6FB1349E06A0968E8
:103E7000C96A8842C8D30127C6E700BF04E00F48DB
:103E80000068401C0D4908600D48006800B101271A
:103E90003846BDE8F0810000780000205400002082
:103EA000440000204800002068000020700000202E
:103EB00058000020FC50002040000020600000203E
:103EC0006400002070B505462C4600261DB3A06C8A
:103ED000401EA064616CE06A88421CD0A06CD0B91E
:103EE000201DFFF739FB606CE062E06AC0F105005D
:103EF000A0610A49E06A0968884202D90749E06A74
:103F00000860E16A01EB8101054A02EB8100211D95
:103F1000FFF761FB0126304670BD0000580000200D
:103F2000FC50002070B50646F068C46804F1180023
:103F3000FFF712FB15480068A0B9201DFFF70CFB26
:103F40001349E06A0968884202D91149E06A0860A9
:103F5000E16A01EB81010F4A02EB8100211DFFF7AD
:103F60003AFB04E004F118010B48FFF734FB0B495E
:103F7000E06A0968C96A884204D901250120084914
:103F8000086000E00025284670BD00007800002091
:103F900058000020FC5000208851002040000020E4
:103FA0006400002070B500240026FFF721FB2E4896
:103FB0000068401E2C4908600846006800284ED161
:103FC0002A48006800284AD023E02948C068C4680D
:103FD00004F11800FFF7C0FA201DFFF7BDFA2549CC
:103FE000E06A0968884202D92249E06A0860E16A09
:103FF00001EB8101204A02EB8100211DFFF7EBFA62
:104000001E49E06A0968C96A884202D301201C4936
:1040100008601748006808B9012000E00020002867
:10402000D3D00CB1FEF71AFA1648056865B100BF87
:10403000FFF7C6FE10B10120114908606D1E002D6A
:10404000F6D100200F4908600D48006838B10126FC
:1040500030070D490860BFF34F8FBFF36F8FFFF735
:10406000D9FA304670BD00007800002050000020D2
:104070008851002058000020FC5000204000002003
:10408000640000206000002004ED00E01CB5002466
:10409000FDF744FF0748006850B10748032100239B
:1040A0008022CDE9001005A10648FFF743FE044633
:1040B00020461CBD8400002088000020546D722022
:1040C00053766300572500082DE9FE4305460C464C
:1040D00016461F46DDF828804FF000091448006896
:1040E00010B3009401960295062C15DAFFF752FEE4
:1040F000022808D10023424669460D480068FFF7B0
:104100001BFD814610E000231A46694608480068F6
:10411000FFF712FD814607E000233A46694604484E
:104120000068FFF795FD81464846BDE8FE83000024
:10413000840000200000000000000000000000DFFC
:10414000DF00000000070700070700002424FF2409
:10415000FF2424000000000000000000006333186A
:104160000C66630060F69F899F76D8000000000708
:1041700007000000003C7EC381810000008181C3F4
:104180007E3C0000082A1C7F1C2A08000018187EAC
:104190007E181800000080E0600000000018181869
:1041A0001818180000000060600000000000C0F057
:1041B0003C0F03003E7F71594D7F3E0040427F7FA0
:1041C00040400000627359496F660000226349490C
:1041D0007F360000181C16537F7F50002767454527
:1041E0007D3900003C7E4B49793000000303717932
:1041F0000F070000367F49497F360000064F4969A6
:104200003F1E00000000006666000000000080669F
:104210006600000000000814224100000028282841
:104220002828280000004122140800000002036929
:104230006D07020000000000000000007C7E1313E8
:104240007E7C0000417F7F49497F36001C3E6341F0
:1042500041632200417F7F41633E1C00417F7F49D3
:104260005D416300417F7F491D0103001C3E6341A6
:10427000517372007F7F08087F7F000000417F7FBD
:1042800041000000307040417F3F0100417F7F08C6
:104290001C776300417F7F41406070007F7F0E1C70
:1042A0000E7F7F007F7F060C187F7F001C3E6341DE
:1042B000633E1C00417F7F49090F06001E3F2171AC
:1042C0007F5E0000417F7F09197F6600266F4D5990
:1042D0007332000003417F7F410300003F7F606035
:1042E0007F3F00001F3F60603F1F00007F7F30184E
:1042F000307F7F0063673C183C676300074F787826
:104300004F070000476371594D67730000000000BC
:10431000000000000000000000000000000000009D
:10432000000000000000000000000000000000008D
:104330000000000000000000000000002074545441
:104340003C784000417F3F4848783000387C444406
:104350006C280000307848493F7F4000387C545436
:104360005C180000487E7F49030200004C5E5252F8
:104370007C3E0200417F7F08047C780000447D7D04
:1043800040000000307040407D3D0000417F7F10C4
:10439000386C440000417F7F400000007C7C18386E
:1043A0001C7C78007C7C04047C780000387C4444CD
:1043B0007C38000044787C54141C0800081C1454F9
:1043C000787C4000447C784C041C1800485C5454B1
:1043D0007424000000043E7F442400003C7C4040E4
:1043E0003C7C40001C3C60603C1C00003C7C703805
:1043F000707C3C00446C3810386C44004C5C50506D
:104400007C3C00004C64745C4C64000000000000C4
:10441000000000000000000000000000000000009C
:10442000000000000000000000000000000000008C
:10443000000000000000000000000000000000007C
:10444000000000000000000000000000000000006C
:10445000000000000000000000000000000000005C
:10446000000000000000000000000000000000004C
:10447000000000000000000000000000000000003C
:10448000000000000000000000000000000000002C
:10449000000000000000000000000000000000001C
:1044A000000000000000000000000000000000000C
:1044B00000000000000000000000000000000000FC
:1044C00000000000000000000000000000000000EC
:1044D00000000000000000000000000000000000DC
:1044E00000000000000000000000000000000000CC
:1044F00000000000000000000000000000000000BC
:1045000000000000000000000000000000000000AB
:10451000000000000000000000000000000000009B
:10452000000000000000000000000000000000008B
:10453000000000000000000000000000000000007B
:10454000000000000000000000000000000000006B
:10455000000000000000000000000000000000005B
:10456000000000000000000000000000000000004B
:10457000000000000000000000000000000000003B
:10458000000000000000000000000000000000002B
:10459000000000000000000000000000000000001B
:1045A000000000000000000000000000000000000B
:1045B00000000000000006090906000000000000DD
:1045C00000000000000000000000000000000000EB
:1045D00000000000000000000000000000000000DB
:1045E00000000000000000000000000000000000CB
:1045F00000000000000000000000000000000000BB
:1046000000000000000000000000000000000000AA
:10461000000000000000000000000000000000009A
:10462000000000000000000000000000000000008A
:10463000000000007C7E13137E7C0000417F7F49D8
:1046400049793300417F7F49497F3600417F7F416F
:1046500001030300787E3733377E7800417F7F493E
:104660005D41630063147F7F146300006363494905
:104670006B7F36007F7F30180C7F7F007F7F301B81
:104680000C7F7F00417F7F081C776300607F1F03E2
:104690007F7F41007F7F0E1C0E7F7F007F7F080899
:1046A0007F7F00001C3E6341633E1C007F7F03034D
:1046B0007F7F0000417F7F49090F06001C3E634158
:1046C0004163220003417F7F4103000063673C1880
:1046D0000C0703001E527F7F521E000063673C18C8
:1046E0003C6763003F3F20203F3F60000F1F18588A
:1046F0007F7F40007F7F607F607F7F003F203F3F64
:10470000203F6000017F7F48487830007F7F484825
:1047100078007F007F7F4848783000003663494941
:104720006B7F3E007F083E6341633E00667F190950
:104730007F7F4100207454543C784000307C4A4ACA
:104740007A310000447C7C5454280000447C7C4432
:104750000C0800006038343438600000387C545451
:104760005C18000044287C7C284400002E445454EB
:104770007C2800007C7C20107C7C00007C7C21114B
:104780007C7C0000447C7C10386C440040780C0435
:104790007C7C4000787C0810087C78007C7C1010C1
:1047A0007C7C0000387C44447C3800007C7C040421
:1047B0007C7C000044787C54141C0800387C444401
:1047C0006C28000008447C7C440800004C5C50507D
:1047D0007C3C000008547C7C54080000446C381079
:1047E000386C44003C3C203C3C6000001C10507C79
:1047F0007C4000007C407C407C0000003C203C2051
:104800003C600000443C505070200000403C505040
:1048100020007C00403C505050200000284454545C
:10482000380000007C10384444380000402814143C
:104830007C7C0000FEFEFEFEFE7E1E06061E7EFE48
:10484000FEFEFEFE7F5F47417C7870606070787C82
:1048500041475F7F00404040404040404040414130
:104860004141414040404040404040404040404045
:1048700040404040400502020202020202020202DF
:1048800002020202022020202020202020202002DC
:10489000020202020202909090909090101010106C
:1048A0001010101010101010101010101010101008
:1048B000020202020202888888888888080808089C
:1048C0000808080808080808080808080808080868
:1048D0000202020240000000554800085E534352A5
:1048E0004F4C4C535452494E473D22285C772A295D
:1048F000222C285C642A292C285C642A292C28284C
:104900004C454654297C28524947485429292900B6
:104910005E505554535452494E473D22285C772AE5
:1049200029222C285C642A29000000005E5055547E
:10493000433D22285C7729222C285C642A292C28D4
:104940005C642A2900000000202020C0CE2022CC58
:10495000E8EBE0EDE4F022007849000800000020D8
:10496000AC000000501A0008244A0008AC000020E7
:1049700044570000601A000800000000000000001A
:1049800000000000000000002C4900081049000849
:10499000DC480008010000000000000000000000EA
:1049A000000000000000000000000000F84F0000C0
:1049B00000000000AAAAAAAA00000000000000004F
:1049C00000000000000000000000000000000000E7
:1049D00000000000000000000000000000000000D7
:1049E00000000000000000000000000000000000C7
:1049F00000000000000000000000000000000000B7
:104A000000000000000000004849000800127A0081
:104A10000000000000000000000000000000000096
:044A20000000000092
:04000005080000C12E
:00000001FF
