:020000040800F2
:10000000006800202D020008B5210008AB2100087F
:10001000B12100080B1F000805390008000000008E
:100020000000000000000000000000009501000832
:10003000A121000800000000D9010008DD27000808
:100040000F1F0008111F00085330000800000000B7
:1000500000000000C11F0008AB2E0008AD2E0008F4
:10006000D927000800000000AF210008E5230008A0
:10007000093900080000000047020008952E00081A
:10008000A92E0008451E000800000000131F0008EC
:10009000DB27000800000000000000000000000056
:1000A000000000000000000000000000091F000820
:1000B000A3210008A5210008A7210008A921000804
:1000C0004B1C012B98BF70472DE9F003911C9B0836
:1000D000B1F80480B1F802900A8831F802CC80446B
:1000E000814402448444D9F80070D8F8006015684F
:1000F000DCF80040C9F80060C8F80070CCF8005087
:100100001460D9F80470D8F804605568DCF804402D
:10011000C9F80460C8F80470CCF804505460083181
:100120005B1ED5D1BDE8F00370474B1C012B98BF77
:1001300070472DE9F003911C9B08B1F80480B1F8D9
:1001400002900A8831F802CC00EB580800EB5909FC
:1001500000EB520200EB5C0CD9F80070D8F800609C
:100160001568DCF80040C9F80060C8F80070CCF8E9
:100170000050146008315B1EDFD1BDE8F00370470A
:10018000DFF80CD001F0D4FD0048004765420008BC
:1001900000680020224B19680868B0E8F00F80F36F
:1001A0000988BFF36F8F4FF0000080F311884EF085
:1001B0000D0E70470000000006480068006880F3DC
:1001C000088862B661B6BFF34F8FBFF36F8F00DF51
:1001D00000BF00BF08ED00E0EFF30980BFF36F8FB1
:1001E0000F4B1A6820E9F00F106008B54FF0BF0000
:1001F00080F31188BFF34F8FBFF36F8F04F0E8FFD8
:100200004FF0000080F31188BDE8084019680868C5
:10021000B0E8F00F80F30988BFF36F8F704700BF1D
:100220004C000020EFF3058070470000064880472F
:1002300006480047FEE7FEE7FEE7FEE7FEE7FEE7CB
:10024000FEE7FEE7FEE7FEE7A128000881010008BF
:10025000002A08BF704770B515460E464FEA0004E5
:10026000324634F9020BB61C34F9021B40434943B1
:10027000C317401843EBE1714FEA504040EAC130E8
:1002800000B2114600F0A0F96D1EE9D170BD00006A
:1002900010B4284C89B2C460016004F58044046144
:1002A00002714FF0000C4371B1F5007F2BD009DCD7
:1002B000202939D0402932D080292CD0B1F5807F37
:1002C00025D00BE0B1F5806F19D0B1F5006F12D0D9
:1002D000B1F5805F0BD0B1F5005F04D04FF0FF3C6B
:1002E00010BC604670470121816013491AE0022169
:1002F0008160124916E004218160114912E0082151
:10030000816010490EE0102181600F490AE0202130
:1003100081600E4906E0402181600D4902E08021A4
:1003200081600C494161DBE74FF4807181600A49CB
:100330004161D5E7E469000864EA000854EA00086E
:1003400044EA000834EA000824EA000814EA000835
:1003500004EA0008F4E90008E4E900082DE9FF4F89
:1003600083B0DDE9100503EB85040399049B01F1DB
:10037000040C01EB83010B1F049E012102EB85029B
:10038000012E84BFB60002963ED900BF3CF9027B25
:100390000197B2F9006000967E433CF902BBB2F9C6
:1003A00002E033F9028B0BFB1E66B4F90070B4F95E
:1003B000029008FB076A33F9066908FB09F806FB97
:1003C00009AA06FB1787009E4FEA2A4A0BFB06760E
:1003D000019F20F821A007FB0E6600EB8107361471
:1003E0007E80029FC1F1000807EB4807764220F8A3
:1003F00017A000EB4707491C7E80049E04EB850490
:1004000002EB85028E42C1D80399B1F90020B1F9FF
:100410000210511A4A1020F82620049A002100EBFD
:1004200082025180039AB2F90030B2F902201A44D4
:1004300052100280418007B0BDE8F08F2DE9F04FE7
:1004400082B000EB8104DDE90BC5002904BF02B0D6
:10045000BDE8F08F34F9026B0196B3F90070009794
:100460007E43B3F902B034F906E9B2F900700EFB2D
:100470001B6630F9028BB2F9029008FB076A30F96B
:10048000026B03EB850306FB09AA7E4308FB196791
:10049000019E4FEA2A4A06FB1B76009F2CF802AB0E
:1004A0000EFB176636142CF8026B02EB8502491E10
:1004B000D0D102B0BDE8F08F2DE9F74F84B00C46E3
:1004C00004984069009004980068450804980279EF
:1004D000012A12D04379009800F0B1F904990698E6
:1004E0008968CDE9000104982946D0E90323204614
:1004F000FFF734FF07B0BDE8F08FD0E9033206996B
:10050000D0F808C004EB850095B300BF30F9027B3A
:100510000297B2F90080CDF8048007FB08F6B2F923
:1005200002B030F906E9B3F900700EFB1B6634F92E
:10053000028BB3F9029008FB076A34F9026B02EBF5
:100540008C0206FB09AA7E4308FB1966029FDDF8B0
:10055000048007FB1B660EFB18664FEA2A4A21F847
:1005600002AB361421F8026B03EB8C036D1ECDD168
:100570000498069943790279009800F060F904988C
:100580000168002904BF07B0BDE8F08F0698801EFF
:1005900011F0010F03D030F8021F490001800499C7
:1005A0000968490804BF07B0BDE8F08F30F8022F92
:1005B000520020F8022B028852000280491EF5D119
:1005C00007B0BDE8F08F00002DE9F0410D4600288E
:1005D00051DDB0FA80F1A1F1110414F0010F0EBF4A
:1005E000A040611E884000B24610074601F0BAF8EC
:1005F0006FF00E0101F038F82149A1EB60000E21E7
:1006000001F032F801F0BCF800B200FB00F141F358
:10061000CF317143C913C1F540514843C013800025
:1006200000B200FB00F141F3CF317143C913C1F5B2
:1006300040514843C013800000B200FB00F141F379
:10064000CF317143C913C1F540514843C0138000F5
:1006500000B27843C013400000B214F0010F0EBF87
:1006600004EBD471611E01EBD1714910084128805F
:100670000020BDE8F08100200880401EBDE8F08128
:10068000DF59375F2DE9F74F884606464F083CD0C3
:100690000446DDF8083004EB87023D46B4F900005B
:1006A00032F902CB4FEA600A33F9029BAAEB6C00E5
:1006B0000AEB6C0C33F9021B4FEA6C0C24F802CBEA
:1006C00032F902AB34F902BB4FEA6B0CACEB6A0CAB
:1006D0004FEA6A0A0AEB6B0A4FEA6A0A24F802AC8C
:1006E00000FB09FA0CFB01FB4FEA2A4A0CFB09FC50
:1006F00048430AEB2B4A4FEA2C4C22F804ACACEBF3
:10070000204022F8020C6D1EC8D102233946304623
:10071000029A00F0ECF806EB480002233946029AF0
:1007200000F0E5F85FEA580004BF03B0BDE8F08FC1
:1007300036F8020B420036F8020B410036F8040B83
:1007400036F8023C400026F8082C5B0026F8061C10
:1007500026F8040C26F8023C7F1EE9D103B0BDE860
:10076000F08F2DE9F74F884606464F083BD00446E8
:10077000029B04EB87023D46B4F9000032F902CB3C
:100780004FEA600A33F9029BAAEB6C000AEB6C0C8F
:1007900033F9021B4FEA6C0C24F802CB32F902AB9E
:1007A00034F902BB4FEA6B0CACEB6A0C4FEA6A0AF5
:1007B0000AEB6B0A4FEA6A0A24F802AC00FB09FA5A
:1007C0000CFB01FB4FEA2A4A0CFB09FC4843AAEB4D
:1007D0002B4A4FEA2C4C22F804AC0CEB204022F8B8
:1007E000020C6D1EC8D1022339463046029A00F031
:1007F000EBFA06EB480002233946029A00F0E4FACD
:100800005FEA580004BF03B0BDE8F08F36F8020B72
:10081000420036F8020B410036F8040B36F8023C71
:10082000400026F8082C5B0026F8061C26F8040C6D
:1008300026F8023C7F1EE9D103B0BDE8F08F70B509
:100840000E4601881D460446012A0CD0B1F5807F72
:1008500039D02CDC102936D020293AD0402932D08A
:10086000802936D039E0B1F5807F15D008DC102919
:1008700012D0202916D040290ED0802912D02CE089
:10088000B1F5007F0ED0B1F5806F05D0B1F5006FE6
:1008900008D0B1F5805F20D101233046626800F0B6
:1008A00093FA1AE030466268FFF75BFF15E0B1F596
:1008B000007F0ED0B1F5806F05D0B1F5006F08D084
:1008C000B1F5805F09D101233046626800F00FF86E
:1008D00003E030466268FFF7D5FE002D08BF70BD0B
:1008E000A1893046A268BDE87040FFF71EBC2DE923
:1008F000FF4F9CB01D9989080022134612915D1884
:1009000030F9236000EB830805EB010CCDF82C8057
:10091000B8F9027030F92C8000EB8C094FEAA80B73
:10092000CDF82090B9F90280B61006EB0B09BF1084
:100930004FEAA808A6EB0B0606F30F060796A7EBEF
:10094000080606F30F0607EB080A04960CEB0104F1
:1009500030F9256030F92480B71000EB850E4FEA9E
:10096000A80BBEF9026000EB8408CDF83480B8F91A
:100970000280B61006EBA80609F30F095F4407F3DF
:100980000F074FEA690808EB67080AF30F0A20F817
:10099000238006F30F064FEA6A0808EB660BDDF8C2
:1009A0002C80A9EB0707AAEB0606A8F802B0DDF831
:1009B0007880DDF8789007F30F0709EBC20938F962
:1009C0003280B9F9029006F30F0608FB07FA09FB1B
:1009D00006AA08FB06F609FB17664FEA264930F916
:1009E00025604FEA2A4AB710BEF9026020F825A018
:1009F000AEF8029030F92450DDF834804FEAA509B2
:100A0000B610B8F90250A7EB0907A6EBA50507F346
:100A10000F0905F30F05079E03F10103761B06F38B
:100A20000F07049E4E4406F30F08079E3544049EAC
:100A300005F30F05A6EB0906DDF8789006F30F061F
:100A400039F922A009EB8209B9F9029009FB06FBEA
:100A50000AFB05BB0AFB06F64FEA2B4B09FB1565A3
:100A600020F82CB0DDF820902D14A9F80250DDF804
:100A700078C002EB42051E9E3CF925C006EB8505B9
:100A8000B5F9025005FB08F60CFB076636140CFBA3
:100A900008FC20F8246005FB17CCDDF834804FEA11
:100AA0002C4CA8F802C0DDF87CC06244DDF848C0D8
:100AB000BCF1010CCDF848C07FF421AF1F9A1B9107
:100AC00092001F92042940F2FC800D9100228908B7
:100AD0001A9212924A1E16921A9B1E9A32F92320DB
:100AE0000B921E9A02EB8302B2F902200A921E9A1E
:100AF00032F9339002EBC302B2F902A003EB4302D6
:100B00001E9B33F922300C931E9B03EB82021F9B2A
:100B1000B2F9022008921A9A1A441A921D9B129A4C
:100B20009A427ED2531830F9225000EB820B03EB2D
:100B3000010CCDF850B0BBF9026030F92C7000EB1D
:100B40008C0BCDF85CB0BBF9028005EB070B0BF307
:100B50000F0BED1BCDF814B005F30F0706EB080BD8
:100B6000A6EB080505F30F080BF30F0B0797CDE96C
:100B700003B80CEB010400EB830600EB8405B6F927
:100B80000280B5F902B030F92370D84430F924E07E
:100B9000DDF814B077444FEA6B0B07F30F07CDF87D
:100BA00014B00BEB670B4FEA6B0BCDF854B0DDF8CC
:100BB0000CB008F30F084FEA6B0BCDF80CB00BEB41
:100BC000680B4FEA6B0EDDF854B020F822B0DDF868
:100BD00050B0ABF802E0DDF814B0ABEB6707DDF81E
:100BE0000CB0ABEB680809FB07FB0AFB08BB09FB71
:100BF00008F80AFB17874FEA274E4FEA2B4B30F9CC
:100C00002370B6F9028020F823B0A6F802E030F98C
:100C10002430B5F90260FB1A03F30F03A8EB0606B4
:100C200000E03EE0DDF81080079F4FEA680B0BEB19
:100C3000630806F30F064FEA670EABEB630BAEEBF0
:100C400066070B9B0EEB660603FB06FE0A9B03FB87
:100C50000BE3DDF82CE01B140EFB0BFEDDF828B0D7
:100C600020F82C300BFB16E6DDF85CB03614ABF840
:100C70000260089B03FB08FC0C9B03FB07C34FEAC5
:100C8000234C0C9B03FB08F6089B20F824C003FBB5
:100C900017631B146B800D9B1A441D9B9A42FFF433
:100CA00041AF129A169B521C12929A427FF614AFD1
:100CB0001F9A92001F921B9A92081B92042A3FF6D9
:100CC00004AF1D9B8C0800220D91591A089111192F
:100CD00030F9225000EB820B0B19CDF838B030F907
:100CE0002370BBF9026000EB8308CDF8308005EB80
:100CF0000709B8F90280ED1B06EB080A05F30F0798
:100D0000A6EB080505F30F08CDF81080079703EB55
:100D1000040C30F9217000EB810630F92CB000EBA7
:100D20008C0509F30F09B6F90280B5F902E05F44BA
:100D300007F30F074FEA690909EB670B0AF30F0A7C
:100D4000F04420F822B008F30F084FEA6A0ADDF8F1
:100D500038B00AEB680EA9EB6707ABF802E0AAEB24
:100D6000680A30F92180B6F9029020F82170A6F8BF
:100D700002A0B5F9021030F92C60079FA9EB010120
:100D8000A8EB060601F30F017F1007EB610820F8BE
:100D90002380DDF8108006F30F064FEA6803DDF8C4
:100DA0003080A3EB6609A7EB6101A8F8029020F858
:100DB0002C1003EB660169800D990A440899914251
:100DC00085D220B0BDE8F08F2DE9FF4F9CB01D9972
:100DD00089080022134611915D1830F9236000EB59
:100DE000830805EB010CCDF83080B8F9027030F9BA
:100DF0002C8000EB8C094FEAA80BCDF83490B9F9A0
:100E00000280B61006EB0B09BF104FEAA808A6EB4C
:100E10000B0606F30F060796A7EB080606F30F0668
:100E200007EB080A05960CEB010430F9256030F950
:100E30002480B71000EB850E4FEAA80BBEF90260C4
:100E400000EB8408CDF84880B8F90280B61006EBB4
:100E5000A80609F30F095F4407F30F074FEA690873
:100E600008EB67080AF30F0A20F8238006F30F0641
:100E70004FEA6A0808EB660BDDF83080A9EB07073C
:100E8000AAEB0606A8F802B0DDF87880DDF87890C5
:100E900007F30F0709EBC20938F93280B9F902905C
:100EA00008FB07FA06F30F0609FB16AA09FB07F76A
:100EB00008FB06764FEA264930F925604FEA2A4AB0
:100EC000B710BEF9026020F825A0AEF8029030F904
:100ED0002450DDF848804FEAA509B610B8F9025051
:100EE000A7EB0907A6EBA50507F30F0905F30F0507
:100EF000079EDDF878A02E4406F30F07059E0AEB47
:100F0000820AA6EB090606F30F08079EBAF902A0AB
:100F1000751B059E05F30F054E44DDF8789006F32A
:100F20000F0603F1010339F9229009FB05FB0AFBC7
:100F300016BB0AFB05F54FEA2B4B09FB065520F8BB
:100F40002CB0DDF834902D14A9F80250DDF878C0EB
:100F500002EB42051E9E3CF925C006EB85050CFB05
:100F600007F6B5F9025005FB18667D4336140CFBF5
:100F7000085C20F82460DDF848804FEA2C4CA8F883
:100F800002C0DDF87CC06244DDF844C0BCF1010C55
:100F9000CDF844C07FF420AF1F9A92001F921A919F
:100FA000042940F2008100220B91890818921192C5
:100FB0004A1E1992189B1E9A32F923200A921E9AF1
:100FC00002EB8302B2F902200C921E9A32F93370BE
:100FD00002EBC302B2F9028003EB43021E9B33F91A
:100FE00022300D931E9B03EB82021F9BB2F902205D
:100FF0001692189A1A4418921D9B119A9A427DD201
:10100000531803EB010C30F9225000EB820ACDF8A3
:101010006CA0BAF9026030F92C9000EB8C0B05EB58
:10102000090ACDF850B0BBF902B00AF30F0ACDF8A7
:1010300010A006EB0B0AA5EB090505F30F090AF34F
:101040000F0AA6EB0B05CDF808A005F30F0ACDF8A3
:101050001C90CDF814A00CEB010400EB830600EB10
:10106000840530F92390B6F902A030F924B0B5F91F
:1010700002E0D944F2440AF30F0BDDF810A009F3A3
:101080000F094FEA6A0ACDF810A00AEB690A4FEA85
:101090006A0A20F822A0DDF808A04FEA6A0ACDF813
:1010A0000CA00AEB6B0A4FEA6A0EDDF86CA0AAF8F6
:1010B00002E0DDF810A0AAEB6909DDF80CA0AAEBAC
:1010C0006B0A07FB09FB08FB09F907FB0A9908FBF8
:1010D0001ABB4FEA294E4FEA2B4B30F92390B6F951
:1010E00002A020F823B0A6F802E030F92430B5F9C8
:1010F0000260A9EB030303F30F0300E043E0AAEB54
:101100000606DDF814A0DDF81C904FEA6A0BABEB85
:10111000630A06F30F064FEA690E0BEB630B0EEB47
:1011200066090A9BAEEB660603FB06FE0C9B03FBFF
:101130001BE3DDF830E01B140EFB06FE0A9E20F8D0
:101140002C3006FB0BE6DDF850B03614ABF802602D
:101150000D9B03FB09FC169B03FB1AC3DDF858C06B
:101160001B140CFB09F6DDF834C020F824300CFB0E
:101170000A6C4FEA2C4CA5F802C00B9B1A441D9B2D
:101180009A42FFF43DAF119A199B521C11929A4258
:101190007FF610AF1F9A92001F921A9A92081A9225
:1011A000042A3FF600AF1D9B8C0800220B91591AB0
:1011B0000A91111930F9225000EB820B0B19CDF86E
:1011C0003CB030F92370BBF9026000EB8308CDF826
:1011D000388005EB0709B8F90280ED1B06EB080A19
:1011E00005F30F07A6EB080505F30F08CDF81480EB
:1011F000079703EB040C30F9217000EB810630F9FE
:101200002CB000EB8C0509F30F09B6F90280B5F993
:1012100002E05F4407F30F074FEA690909EB670B28
:101220000AF30F0AF04420F822B008F30F084FEA3F
:101230006A0ADDF83CB00AEB680EA9EB6707ABF869
:1012400002E0AAEB680A30F92180B6F9029020F892
:101250002170A6F802A0B5F9021030F92C60079FA2
:10126000A9EB0101A8EB060601F30F017F10A7EB24
:10127000610820F82380DDF8148006F30F064FEA9A
:101280006803DDF8388003EB660907EB6101A8F815
:10129000029020F82C10A3EB660169800B990A4498
:1012A0000A99914285D220B0BDE8F08F70B504460E
:1012B00080780D462188A3896268012828460DD0D0
:1012C000FFF715FBE078012818BF70BDE28921887F
:1012D0002846A368BDE8704000F0AFB8FFF774FD82
:1012E000F0E72DE9F0074D0801244FF0000C04EB66
:1012F00051066146A5F102082CE061452AD250F85A
:10130000314050F83C7040F8317040F83C4000EB00
:10131000C10400EBCC07D4F80490D7F804A0C4F8BB
:1013200004A0C7F804908F190CEB060450F837900E
:1013300050F834A040F837A040F8349000EBC707CD
:1013400000EBC404D7F80490D4F804A0C7F804A0B4
:10135000C4F8049000EBC104AC44A76850F83C907A
:10136000C4F8089040F83C7000EBCC0CE768DCF85F
:101370000490C4F80C90CCF80470891CB3F800C039
:1013800089B203EB42034145B7D9BDE8F007704786
:101390002DE9F0074D0801244FF0000C04EB510635
:1013A0006146A5F102082BE0614529D250F8314091
:1013B00050F83C7040F8317040F83C4000EBC109F7
:1013C00000EBCC04D9F80470D4F804A0C9F804A048
:1013D00067608C190CEB060750F8349050F837A072
:1013E00040F834A040F8379000EBC40400EBC70786
:1013F000D4F80490D7F804A0C4F804A0C7F8049067
:1014000000EBC104AC44A76850F83C90C4F80890C5
:1014100040F83C7000EBCC0CE768DCF80490C4F8B2
:101420000C90CCF80470B3F800C0891C03EB4203A5
:101430004145B9D9BDE8F00770472DE9F00F012407
:101440004F0804EB51084FF0000C7C0804BFBDE8C6
:10145000F00F7047014600EB8805002614E0BCEB56
:10146000460F11D950F82CA0D1F80090C1F800A077
:1014700040F82C900CEB0809D5F800A050F829B0E2
:10148000C5F800B040F829A0BC4451F8049F50F8BA
:101490002CA041F804AB40F82C90B3F800C003EB4B
:1014A0004203641E05F1080506F10106D7D1BDE827
:1014B000F00F704740EA01039B0703D009E008C919
:1014C000121F08C0042AFAD203E011F8013B00F809
:1014D000013B521EF9D27047F0B480EA0102D40FEA
:1014E0004200B2EB410F02D20246084611464A00C2
:1014F00042D0C30DDDB2C1F3C752AD1A202D35DA8B
:10150000C1F3160141F4000204B15242C5F12006B4
:1015100002FA06F12A411044B3EBD05F23D0C4B1E4
:10152000012DA0EBC35009DCF0BC4FF0004202EAF1
:10153000C352DBB200F5000000F0D8B9400000F162
:10154000807000EBC350A0F1807040EAD170490078
:1015500009E0490841EAC071A0EBC35000F5000062
:10156000400800EBC350F0BC00F0B7B96142012263
:1015700002EB4101001BF6E7F0BC704781F000412F
:10158000AAE780F00040A7E780EA010210B502F068
:101590000043400022D04A001FD0010E01EB12612F
:1015A000C0F35600C2F3560240F4000042F40002B9
:1015B000A0FB022000047F39140400D0401C50EA34
:1015C000124001D44000491EC2B20C0604EBD010F8
:1015D000401C4008802A02D003E0002010BD20F00B
:1015E0000100002900DA0020184310BD30B480EA61
:1015F000010202F0004530F0004221F0004013D01B
:1016000090B1C30DD40DC2F31601C0F31600E41A55
:1016100041F4000140F400027D34914201D3641C86
:1016200000E04900002C02DA30BC002070474FF483
:1016300000000023914201D3891A034340084FEA76
:101640004101F7D151B1914202D14FF0004105E083
:1016500002D24FF0010101E06FF0010103EBC45031
:10166000284430BC00F039B9420005D0C0F3C7525D
:101670005242914201DC0020704700EBC15070479C
:101680002DE9FE4F81EA030404F0004421F00041FB
:1016900000944FF0000B23F0004350EA01045ED0A9
:1016A00052EA03045BD0C3F30A54C1F30A552C4435
:1016B000A4F2F3340194A0FB0254C1F3130141F4EA
:1016C0008011C3F3130343F4801301FB024400FBB6
:1016D000034E840A970A44EA815447EA8357A4FBDD
:1016E000076802958D0A05FB07854FEA932C04FBDA
:1016F0000C542705029D4FEA065847EA1637B5EB0A
:1017000008056EEB070C870E920E47EA811742EA36
:101710008312A7FB0201B6EB0B0164EB00042B0D57
:1017200043EA0C335E1844EB1C50DA465146E7FBA3
:101730000201C5F313044FEA0B3343EA14534FEA93
:101740000432019C43EA0603A4F10C040294009CB9
:10175000CDE900B400F007F903B0BDE8F08F002038
:101760000146F9E7C10F80EAE0700844CA079623F2
:10177000002100F0BBB896230022114600F0B6B855
:1017800000F0004220F00040C10DC0F3160040F40C
:1017900000007F2901DA00207047962903DCC1F19F
:1017A0009601C84001E096398840002AF4D04042B2
:1017B000704720F00040C10DC0F3160040F4000057
:1017C0007F2901DA00207047962903DCC1F19601D8
:1017D000C840704796398840704700F0004230F0AA
:1017E00000400AD0C10D01F56071C0F3160042EA55
:1017F0000151C2084007114370470020014670475D
:1018000001F0004330B421F0004150EA010206D05B
:101810000A0DA2F56072C1F31301002A02DC30BC8C
:1018200000207047440F44EAC104C100E01830BCF6
:1018300000EBC25000F051B8002801DBC0F10040BD
:10184000002901DBC1F100418142704730B50B46F0
:10185000014600202022012409E021FA02F59D42E0
:1018600005D303FA02F5491B04FA02F52844151EB4
:10187000A2F10102F1DC30BD2DE9F05F0546002048
:1018800092469B4688460646814640241BE02846F1
:1018900041464746224600F06CFA53465A46C01A63
:1018A000914110D311461846224600F053FA2D1AE2
:1018B00067EB01084F4622460120002100F04AFA5A
:1018C00017EB00094E41201EA4F10104DFDC48465D
:1018D00031462A464346BDE8F09F0029A8BF70471D
:1018E000401C490008BF20F00100704710B4B0FA56
:1018F00080FC00FA0CF050EA010404BF10BC7047F1
:1019000049B1CCF1200421FA04F411FA0CF118BF0A
:10191000012121430843A3EB0C01CB1D4FEA0061D9
:101920004FEA102042BF002010BC704700EBC350AC
:1019300010440029A4BF10BC7047401C490008BFD8
:1019400020F0010010BC704710B5141E73F10004A4
:1019500008DA401C41F1000192185B411A4301D1A1
:1019600020F0010010BD2DE9F04D92469B4611B1CB
:10197000B1FA81F202E0B0FA80F22032904600F033
:10198000E9F904460F4640EA0A0041EA0B015346D2
:101990005A46084313D0114653EA010019D0C8F142
:1019A0004002504600F0E5F905460E4650465946BD
:1019B000424600F0CFF9084305D0012004E020465C
:1019C0003946BDE8F08D0020054346EAE0762C4319
:1019D00037430A986305E40AA0EB08000022FD0AD9
:1019E00044EA47540A3002D500200146E9E70105E0
:1019F00010196941DDE9084500196941BDE8F04D5C
:101A0000A2E72DE9FE4F804681EA0300C00F0C4695
:101A1000009021F0004123F00045B8EB0200A941FD
:101A200005D24046214690461C460B46024623F00E
:101A30000040104347D0270DC7F30A00C3F30A51F3
:101A40000290401A019040286BDAC3F3130040F46F
:101A5000801B0098924620B10023D2EB030A63EB6F
:101A60000B0B01985946C0F14002504600F072F944
:101A700006460D4650465946019A00F08AF910EB89
:101A800008006141002487EA115284EAE7731A438F
:101A900040D0009A62B3019A012A4FEA075215DC3E
:101AA000001B61EB02014FF0004202EA0752CDE950
:101AB0000042001C41F5801132462B46FFF753FFD0
:101AC00003B0BDE8F08F40462146F9E7001B61EB0B
:101AD0000201001C41F5801300185B412018A2F59B
:101AE000001747EB030140EAD570B6196D4111E0CC
:101AF0006D084FEA360645EAC0754FEA0752001BEB
:101B000061EB0201001C41F5801149084FEA3000E9
:101B10000019514132462B4603B0BDE8F04FFFF7A4
:101B200013BF0098012240000023D0EB020263EBB8
:101B3000E073009821464FEAE074B8EB000061EBD7
:101B40000401E9E783F000435BE781F0004158E7D7
:101B50002DE9F04D81EA030404F0004B21F000452B
:101B600014464FF0000A23F0004150EA050220D04D
:101B700054EA01021DD0C5F30A570246C5F3130308
:101B8000C1F31300C1F30A5640F4801543F48013E7
:101B9000A7EB0608101BD64608F2FD3873EB0500CC
:101BA00002D308F1010801E092185B41B8F1000F7F
:101BB00003DA00200146BDE8F08D00204FF48011CB
:101BC000064684460EE0171B73EB050705D3121B70
:101BD00063EB050306434CEA010C49084FEA300069
:101BE00092185B4150EA0107EDD152EA030012D08E
:101BF00082EA040083EA0501084305D0101BAB41CB
:101C000006D20122002306E000224FF0004302E04A
:101C10006FF0010253101AEB06004CEB085110EB69
:101C20000A0041EB0B01BDE8F04DFFF78DBE2DE939
:101C3000F04D00231A461B1A8A4103DB002001469F
:101C4000BDE8F08DC1F30A52C1F3130141F48015D0
:101C50004FF0000BD10702D100186D41521E002732
:101C6000044640F2FF11384601EB620A3E468046C8
:101C7000024600204FF4801100F07BF8C219714138
:101C8000BB1846EB0100B4EB030C75EB000C04D35E
:101C9000E41A65EB000517460E46241908F1010009
:101CA0006D4180463428E3DDF91946EB0600091B37
:101CB000A84103D24FF0FF32134601E00022134641
:101CC0001BEB070046EB0A51BDE8F04DFFF73CBEA9
:101CD000C1F30A52C1F3130140F2FF3341F4801102
:101CE0009A4202DA00200146704740F233439A429A
:101CF000A2F2334202DC524200F03BB800F02AB8B4
:101D000030B5041E71F1000404DB4FF00044404282
:101D100064EB0101141E73F1000405DB1C464FF057
:101D20000043524263EB0403994208BF904230BD26
:101D3000064C074D06E0E06840F0010394E8070018
:101D400098471034AC42F6D3FEF71EFA3C880108DF
:101D50005C880108202A04DB203A00FA02F1002006
:101D600070479140C2F1200320FA03F319439040D9
:101D70007047202A04DB203A21FA02F00021704744
:101D800021FA02F3D040C2F12002914008431946E3
:101D90007047202A06DBCB17203A41FA02F043EACB
:101DA000E07306E041FA02F3D040C2F12002914014
:101DB00008431946704700000146054A106811B1F2
:101DC00040F0010001E020F00100014A106070477E
:101DD0000080084010B5144B1A68144B1A40D0E923
:101DE0000034234484682344C46803EB0413446927
:101DF0002344C4692344446A234490F8284003EBF5
:101E000044631A44084B596821F40031038C01EBF8
:101E10004341054B1A605960038B034C2361438B8C
:101E2000A3600369A36210BD008008400300FFF1B6
:101E30000348006840F00200014908607047000054
:101E4000008008407047000010B50479836803EBF8
:101E50000473C46823440469234444691919048B36
:101E6000036803EB44531944044A054B1A43054BDA
:101E70001B6893430B44034C236010BD00001EF00D
:101E80000000E1010080084000B595B001214FF04D
:101E9000817000F091FC684600F096FA8020ADF861
:101EA000000000208DF80A006946164800F084F909
:101EB00000200E900F90109011901290139014909B
:101EC0000EA8FFF7C1FF002003904FF440500C9084
:101ED000002004900590072006900020079007201E
:101EE0000D9000200890ADF82400ADF826000A906F
:101EF0000B9003A8FFF76EFF0120FFF75DFF15B001
:101F000000BD000000000C40704700BFFEE77047B6
:101F100070477047012904D101228240034B9A6225
:101F200003E001228240014BDA62704700800240E8
:101F30008268B2F1406F02D102680A6007E08269EC
:101F4000521E83689B0E9A4003681A440A604269D5
:101F5000042A03D142680C324A600EE0C268B2F132
:101F6000404F02D142684A6007E08269521EC3684E
:101F70009B0F9A4043681A444A60D0E903231A43EE
:101F800083681A43436A1A43036A1A43C3691A43AC
:101F900083695B1E42EA031243691A438A607047F1
:101FA00000200649486088604861401EC861486258
:101FB000C8624863C8630120C8647047008002405B
:101FC00010B51248006830B9114812494860012024
:101FD0000E49086005E010480E49486000200B4992
:101FE00008600E49082000F021F80D490D480068EE
:101FF00003F01DFB0A48006838B14FF080500A49D1
:102000000860BFF34F8FBFF36F8F10BD0C0000202F
:1020100058050020600B0020A8000020880B00203D
:10202000180000200800002004ED00E070B5044610
:102030000D46214821498860286828B11E4A02EBD4
:1020400004112868FFF774FF686840B11B48C06836
:1020500000EB041631466868FFF76AFF00BFA86806
:1020600040F0010015494860687B012802D1A0407A
:10207000886103E00120A0401049C8610120A04010
:102080000E4948620120A0408862A87B18B901204F
:10209000A040486303E00120A04008490863287B72
:1020A000012803D1A0400549886303E00120A04036
:1020B0000249C86370BD000000600020008002403B
:1020C0000021016041608160017341738173704739
:1020D00010B501212A4800F06FFBFFF761FF294886
:1020E000FFF7EEFF284829490860294848604FF467
:1020F000167088614FF0406088604FF08040C86083
:102100004FF0885008610020C8614FF480200862B9
:10211000C00048620120486108461A490860002052
:102120000873487388730820FFF780FF4FF48070AE
:1021300018494862C86105200321002804DB4A07CA
:10214000130E154A135406E04A07140E134A00F002
:102150000F031B1FD45400BF0520002809DB00F02B
:102160001F02012191404209920002F1E022C2F8CF
:10217000001100BF01210820FFF7CCFE10BD0000B8
:1021800020011000880B002018800840600B002000
:10219000A80000200080024000E400E018ED00E00C
:1021A0007047704770477047704700BFFEE7704741
:1021B00000BFFEE7704700002DE9FE4F4768D0F8EA
:1021C00008C0D0F80C80D0F81090D0F814A0CDF84A
:1021D00008A0D0F818A0CDF804A0D0F81CA0CDF825
:1021E00000A00022012303254FF001160C885FE0B8
:1021F00004F0010ABAF1000F55D027EA030A91F85A
:1022000002B00BFA02FB4AEA0B0791F808A04FEA6A
:10221000420B0AFA0BFA2CEA050B4AEA0B0C28EAE5
:10222000030A91F80AB00BFA02FB4AEA0B0829EA02
:10223000060A91F803B002F1100E0BFA0EFB4AEAFF
:102240000B0A91F804B00BFA02FB4AEA0B09DDF81D
:1022500008A02AEA060A91F805B00BFA0EFB4AEA32
:102260000B0A91F806B00BFA02FB4AEA0B0ACDF80A
:1022700008A091F809A04FEA420B0AFA0BFADDF820
:1022800004B02BEA050B4AEA0B0ACDF804A0DDF8EE
:1022900000A02AEA030A91F807B00BFA02FB4AEA07
:1022A0000B0ACDF800A05B00AD007600521C64085C
:1022B000002C9DD1DFF8C4A0504502D14FF01F0A79
:1022C00001E04FF0000A27EA0A0AC0F804A0DFF88C
:1022D000ACA0504502D14FF01F0A01E04FF0000AB8
:1022E0002CEA0A0AC0F808A0DFF890A0504502D1F5
:1022F0004FF01F0A01E04FF0000A28EA0A0AC0F86E
:102300000CA0DFF878A0504502D14FF01F0A01E081
:102310004FF0000A29EA0A0AC0F810A0DFF85CA012
:10232000504502D14FF01F0B01E04FF0000BDDF8DC
:1023300008A02AEA0B0AC0F814A0DFF840A0504514
:1023400002D14FF01F0B01E04FF0000BDDF804A0AD
:102350002AEA0B0AC0F818A0DFF820A0504502D1E5
:102360004FF01F0B01E04FF0000BDDF800A02AEA50
:102370000B0AC0F81CA0BDE8FE8F000000000C4056
:10238000024613680B400BB1012000E000207047AB
:102390000268054B984201D11F2300E000230B4344
:1023A0009A4302607047000000000C400268054B31
:1023B000984201D11F2300E000239A430A430260A0
:1023C0007047000000000C404FF6FF7101800021B3
:1023D0008170C170017141718171C171017241726D
:1023E0008172704770470000014908607047000023
:1023F0008800404210B502460C4BD86820F003001C
:102400001043D860586820F4706040EA012058609A
:10241000074B1B6843B10123054C241D2360002397
:10242000034C883CC4F88C3010BD00000000024012
:102430008800404238B50020009000BF212000F005
:1024400069F905460098401C00900098B0F5C06FEF
:1024500001D2002DF2D0212000F05CF908B1012456
:1024600000E00024204638BD0149086070470000A4
:10247000880140420146044AD06820F0F00040EA5A
:102480000110D06070470000000002400146034A7E
:10249000D06820F440700843D060704700000240CC
:1024A0002DE9FC4F0146DFF864B2DBF80CB00BF00D
:1024B000020BBBF1000F01D0954B00E0944BDFF80D
:1024C0004CB2DBF80CB00BF0010BBBF1000F00D0ED
:1024D0005B081C46DFF834B2DBF80CB00BF0040BE1
:1024E000BBF1000F0DD0DFF824B2DBF804B0CBF362
:1024F000032B0BF1010BCDF800B0DDF800B004FBAD
:102500000BF4DFF808B2DBF80CB0CBF3012BBBF116
:10251000000F06D0BBF1010F08D0BBF1020F28D18C
:1025200022E0DFF8ECB1C1F800B027E0DFF8DCB161
:10253000DBF80CB04FF0080E0EEA1B1BBBF1000FCE
:1025400001D1A0460DE0DFF8C4B1DBF80CB0CBF34D
:10255000021B0BF1010B4FF0010E0EFA0BFEB4FB48
:10256000FEF8C1F8008009E04FF4004BC1F800B05C
:1025700004E049F6404BC1F800B000BF00BFDFF8EF
:102580008CB1DBF810B00BF0020BBBF1000F01D0E7
:102590005F4D00E05E4DDFF874B1DBF810B00BF07A
:1025A000010BBBF1000F00D06D082F46DFF85CB1C6
:1025B000DBF810B00BF0040BBBF1000F0DD0DFF80F
:1025C0004CB1DBF804B0CBF3031B0BF1010BCDF8DE
:1025D00000B0DDF800B007FB0BF7B946DFF82CB10F
:1025E000DBF810B00BF0100BBBF1000F01D04FEA7D
:1025F0005909C1F80490DFF814B1DBF818B04FEABC
:102600001B1000F0080BBBF1000F02D1DFF800C176
:102610000BE000F0070B0BF1010B4FF0010E0EFA6F
:102620000BF0DFF8ECB0BBFBF0FCC1F80CC0DFF83E
:10263000DCB0DBF8180000F0080BBBF1000F04D190
:10264000DFF8CCB0CDF804B00DE000F0070B0BF1D3
:10265000010B4FF0010E0EFA0BF0DFF8B4B0BBFB2C
:10266000F0FBCDF804B0DDF804B0C1F810B0DFF82D
:102670009CB0DBF814B00BF0030BBBF1000F06D0DD
:10268000BBF1010F05D0BBF1020F06D103E01E46DE
:1026900005E02E4603E0264601E03E4600BF00BFAF
:1026A000DFF868B0DBF814B0CBF3011BBBF1000F0F
:1026B00006D0BBF1010F06D0BBF1020F08D105E037
:1026C0004FF4004206E049F6404203E0324601E0A2
:1026D000624600BF00BFDFF834B0DBF814B04FEA49
:1026E0001B2000F0080BBBF1000F01D1924609E05E
:1026F00000F0070B0BF1010B4FF0010E0EFA0BF07F
:10270000B2FBF0FAC1F808A0BDE8FC8F000002405F
:1027100000127A0010B5014601F0E003202B02D12F
:10272000074B1A6801E0074BDA6B01F01F04012325
:10273000A34013400BB1012000E0002010BD0000B9
:102740000000024000800D400D49896821F003011E
:102750000B4A9160012802D002280ED106E00849F8
:10276000896841F00101064A916007E004498968DF
:1027700041F00301024A916000E000BF00BF7047D2
:102780000000024038B50020009000BF2220FFF773
:10279000C1FF05460098401C00900098B0F5C06F3E
:1027A00001D2002DF2D02220FFF7B4FF08B101249E
:1027B00000E00024204638BD29B1064AD269024310
:1027C000044BDA6104E0034AD2698243014BDA61C7
:1027D00070470000000002407047704710B500BF0E
:1027E000BF2080F31188BFF34F8FBFF36F8F00BFFF
:1027F00002F0CEFF18B14FF080500449086000BFCE
:10280000002080F3118800BF10BD000004ED00E03F
:1028100030B5204CE46804F00204022C01D11E48BB
:1028200000E01D481B4CE46804F0010404B14008BA
:102830000146184CE46804F00404042C05D1154C3E
:102840006468C4F30324631C5943124CE468C4F362
:10285000012424B1012C06D0022C13D10DE00E4C22
:102860000E4D2C6013E00B4CE468C4F30314641C9D
:10287000B1FBF4F2094C226009E04FF40044074D2B
:102880002C6004E049F64044044D2C6000BF00BFBA
:1028900030BD00000000024000127A009C000020C1
:1028A00000B50D480D49C8610846C0680020C860E1
:1028B000084640680020486008468068002088601C
:1028C0000846006900200861084640690020486108
:1028D000FFF79EFF00BD000010000008000002404E
:1028E0000246104B586A104B9A4205D120F0FF0067
:1028F000084340F0807012E00C4B9A4206D120F45D
:102900007F4040EA012040F0007008E0084B9A4206
:1029100005D120F47F0040EA014040F08060014B87
:1029200058627047000002400000074000800740E6
:1029300000000840426D8A43426570470A46C168FC
:1029400012B141F0010101E021F00101C1607047C5
:1029500030B50C8804604C8844608C888460CC88D6
:102960000D892C444D892C448D892C44CD896319C3
:10297000C3604C8A0D8A04EB05148D8A2C44CD8AE1
:102980006219026530BD0021018041808180C180D3
:10299000018141818181C181018241828182C18223
:1029A00070470021C1600160416081600162416245
:1029B0008162C162016341638163C16301664166F3
:1029C0008166C166016141618161C16101674167E1
:1029D0008167C167016441648164C16401654165C7
:1029E0008165C165704710B51346826D0BB10A430E
:1029F00000E08A43826510BD8CB00027002009905A
:102A0000089007909DE100235A1E1946CD480068A2
:102A100002F050FC0021CC48FFF790FFCB48006843
:102A200000B9CB4DC9480068012800D1C94D0798AD
:102A300000287CD1781C87B2052F79D100200A901C
:102A4000002405E035F814100A9808440A90641C24
:102A5000B4F5167FF6D34FF416710A98B0FBF1F671
:102A60002888B04229D9002407E035F81400B04284
:102A700002D21FFA84F903E0641CB4F5167FF4D384
:102A800000BF4C4607E035F81400B04202D91FFAE7
:102A900084FA03E0641CB4F5167FF4D300BF5446F7
:102AA00007E035F81400B04202D2A0B20B9003E068
:102AB000641CB4F5167FF4D329E0002407E035F850
:102AC0001400B04202D91FFA84F903E0641CB4F583
:102AD000167FF4D300BF4C4607E035F81400B0422F
:102AE00002D21FFA84FA03E0641CB4F5167FF4D313
:102AF00000BF544607E035F81400B04202D9A0B236
:102B00000B9003E0641CB4F5167FF4D300BF0B9860
:102B1000A0EB090009900998FEF72DFE8E4901905F
:102B2000FEF764FD8D490290FEF72EFD01E044E0C2
:102B300002E14FF084410390FEF758FD4FF07E51C3
:102B40000490FEF71BFD0590FEF733FE1FFA80FB95
:102B500042F210710998B1FBF0F00590FEF70BFE00
:102B600006900698FEF739FE02460B46CDE90401B1
:102B70007BA17E4800F0DAFE04217C4800F0D4FC02
:102B800000210820FFF7C6F900216F48FFF7D6FEA5
:102B90007748A0F804B00020099075496A48FFF70B
:102BA000D7FE01216848FFF7C9FE01210820FFF781
:102BB000B1F9012007900027BEE007980128FBD15A
:102BC000781C87B2052FF7D100270123002220218E
:102BD0006848FDF75DFB8046B8F1000F7DD100200D
:102BE0000890654A29466348FDF766FC002408E022
:102BF000614830F81400000100B25F4921F8140068
:102C0000641C402CF4D320225C495B48FDF720FB78
:102C1000012411E059494888FEF7ADFD5749059058
:102C200031F81400FEF7A7FD04900599FEF7DEFCCD
:102C3000534941F82400641C102CEBD302240CE00F
:102C40004F4A52F8241052F82400FEF79DFC0590DC
:102C50000899FEF741FC0890641C102CF0D30898EA
:102C6000FEF7BBFDCDE9000101F0F2FF0022454B6C
:102C7000CDE90201FEF704FDCDE90401FEF7C0FD38
:102C80004149086008460068FEF7A7FD02460B466A
:102C9000CDE904013DA1354800F048FE0521334847
:102CA00000F042FC00210820FFF734F940F2E73B36
:102CB0002F48A0F804B0002009902D492248FFF7C2
:102CC00047FE01210820FFF725F901211E48FFF7E3
:102CD00035FE32492C48006800E02BE0FEF7ACFDE1
:102CE0000BD200202E490870032001230022114638
:102CF00000902C4800F0D2FB1CE02B4922480068D1
:102D0000FEF79AFD0BD2012025490870032001230C
:102D1000002211460090254800F0C0FB0AE0022086
:102D20001F4908700320012300221146009020480B
:102D300000F0B4FB0020079001210348FFF7FEFDDF
:102D400000BF60E608000020008007400C00002063
:102D500058050020A800002000401C468096184B13
:102D600046203D2025352E3366487A00200B002072
:102D7000980B0020880A0020080A0020A00A0020E2
:102D8000E00A002000005940280000205448442058
:102D90003D2025332E336625250000000000C0406D
:102DA0001C000020846200080000F041046200085A
:102DB0004462000814E000235A1E0A490A480068C9
:102DC00002F078FA01280BD100BF8021074800F0FB
:102DD000C7F80128F9D103480178044800F036F912
:102DE000E9E700002C0000200400002000800340E0
:102DF00010B50121C803FFF7DFFC002202212148A2
:102E0000FFF7F1FD1F48FFF7CCFD00211D48FFF73C
:102E100067FD1D48FFF7B7FD07201B49488040F2BA
:102E2000E73088800020C8800881C8811548FFF7F6
:102E30008FFD012202211348FFF7D5FD0F2003214A
:102E4000002804DB4A07130E104A135406E04A0711
:102E5000140E0F4A00F00F031B1FD45400BF0F20A5
:102E6000002809DB00F01F02012191404209920075
:102E700002F1E022C2F8001100BF01210148FFF772
:102E80005DFD10BD00800740980B002000E400E0CD
:102E900018ED00E010B5FEF7CBFF02210148FFF767
:102EA00049FD10BD008007407047704710B51021E4
:102EB0000F4800F05DF8012803D110210C4800F004
:102EC0003FF80B4800F0BEF80A49087000230A4A90
:102ED0000A48006802F068FB0748006838B14FF004
:102EE000805007490860BFF34F8FBFF36F8F10BD4D
:102EF000008003401000002014000020000000208B
:102F000004ED00E002460B4B986A0B4B9A4205D148
:102F100040F0807020F0FF00084308E0074B9A4221
:102F200005D140F0007020F47F4040EA0120014BC1
:102F30009862704700000240000003400080034098
:102F4000426C0A434264704721B1026B42F00102B5
:102F5000026304E0026B4FF6FE731A40026370478F
:102F6000024693690B400BB1012000E0002070473E
:102F70000246136C0B400BB1012000E000207047AB
:102F80001AB1836B0B43836302E0836B8B438363D0
:102F9000704700002DE9F04F87B004460D4601A8A8
:102FA000FFF77EFA019F2448866A2448844206D1AE
:102FB00006F0070101208840B7FBF0F708E0204841
:102FC000844205D1C6F3022101208840B7FBF0F707
:102FD00028688008B7FBF0F94FEA991809F03F0A12
:102FE000B8000AEB8811B0FBF1FB2868ABEB0000DE
:102FF000C0012968B0FBF1F006900698022803D9B9
:10300000002007B0BDE8F08FC4F82480C4F828A0E1
:10301000E66AA888E988084329890843698908433A
:103020000643E662266B4FF680708643A889064306
:1030300026630120E5E70000000002400000034095
:10304000008003400146086880B27047CAB202603F
:10305000704770470EB50121C805FFF7ADFB684604
:10306000FFF7B2F90420ADF8000001208DF80A0046
:1030700000208DF808008DF802008DF803008DF80F
:10308000040069460148FFF797F80EBD00800B4029
:1030900010B504210348FFF773F908B1002010BDF3
:1030A0000120FCE700800B4008B502F06BFB0446F2
:1030B000002558E0142001F065FFFFF7E9FF012823
:1030C00009D145B902F05EFB001B322803D301256C
:1030D00002F058FB0446012D45D1FFF7D9FF002827
:1030E00041D102F04FFB001B32283CD31E48007830
:1030F00020B1012812D0022830D11FE002F042FB9B
:1031000080461A480068FEF768FB064632460B46C2
:1031100017A0CDF8008000F0F9FB1FE002F032FBB1
:10312000804612480068FEF758FB064632460B46BA
:1031300017A0CDF8008000F0E9FB0FE002F022FBC1
:1031400080460A480068FEF748FB064632460B46B2
:1031500018A0CDF8008000F0D9FB00BF00BF00250B
:1031600002F010FB0446A5E71C0000202800002008
:1031700053696E2C205448443A2025662C2054690B
:103180006D6520286D73293A2025750A000000001E
:10319000547269616E676C652C205448443A20254E
:1031A000662C2054696D6520286D73293A20257599
:1031B0000A0000005371756172652C205448443A2E
:1031C0002025662C2054696D6520286D73293A20CE
:1031D00025750A0070B50546002404E0E1B22846D2
:1031E00000F004F8641C082CF8DB70BD70B50546CF
:1031F0000E463146284600F0A1FA0021284600F08C
:1032000013FA00240CE000BF284600F0A9F900F0F2
:1032100080000028F8D10021284600F0F7FA641C4D
:10322000402CF0DB70BD08B5009000BF00994A1E2D
:1032300000920029FAD108BD10B50446012C04D132
:1032400080212C48FFF7B2F804E04FF48071294840
:10325000FFF7ACF801212848FFF79AF84FF4806196
:103260002448FFF795F80520FFF7DDFF2348406865
:1032700040F03F00214948602148406840F00C0080
:103280001F4948603F2000F037FA0520FFF7CBFFC9
:1032900002211948FFF78AF80520FFF7C4FF022131
:1032A0001548FFF775F80520FFF7BDFF012112480B
:1032B000FFF76EF84FF480610E48FFF769F80F488A
:1032C00040684FF6C07108400C4948600C4840689F
:1032D0004FF6F37108400A494860012C04D180215F
:1032E0000448FFF755F804E04FF480710148FFF7F8
:1032F0004FF810BD00000B4000800B4000800A40DA
:1033000000800E4010B500F041F800F01DF800BF3D
:10331000012000F025F900F080000028F8D10120FC
:10332000FFF78AFF00BF022000F01AF900F08000CA
:103330000028F8D10220FFF77FFF0120FFF74AFFA6
:103340000220FFF747FF10BD10B54FF400710E4883
:10335000FFF71EF8C820FFF766FF4FF400710A4818
:10336000FFF724F80520FFF75EFF00BF012000F003
:10337000F7F800F0900030B1022000F0F1F800F012
:1033800090000028F2D110BD00000B400EB50121C5
:103390001C48FFF711FA00208DF803008DF8040097
:1033A0008DF805008DF806008DF807003F20ADF878
:1033B000000000208DF802008DF8080001208DF833
:1033C0000A0003208DF8090069460F48FEF7F4FE55
:1033D0000C20ADF8000069460C48FEF7EDFE4FF4F6
:1033E000F060ADF8000001208DF802006946084841
:1033F000FEF7E2FE0320ADF8000069460548FEF73F
:10340000DBFE0EBD0000E02000800A4000800E4080
:1034100000000B4000800B402DE9F05F05460C4694
:1034200091462046E11704EB5171C9104E1CCA4663
:103430002046E11704EB5171C910A4EBC1014FEA1A
:10344000C10B0AF0FF01F0B200F078F90BF0FF01B8
:10345000F0B200F0E9F8202D06DBFF2D04DCA5F129
:1034600020004FEAC00801E04FF0000847460DE099
:1034700000BFF0B200F074F800F080000028F8D12E
:10348000054AD15DF0B200F0C1F97F1C08F10800D7
:103490008742EDDBBDE8F09FC46200082DE9FF4FD5
:1034A00083B08046894692464FF0000B4E4635E089
:1034B00054462FE02046E11704EB5171C9104D1C12
:1034C0000296E11704EB5171C910A4EBC101CA00C7
:1034D0000192029EF1B2E8B200F030F9019AD1B245
:1034E000E8B200F0A1F800270FE000BFE8B200F05A
:1034F00037F800F080000028F8D10BEB070218F82D
:103500000210E8B200F082F97F1C082FEDDB0BF10E
:10351000080B641C10988442CCDD761C0698864209
:10352000C6DD07B0BDE8F08F70B505460E46002435
:1035300008E0285D00B907E0285D32462146FFF724
:103540006BFF641C102CF4DB00BF05E03246214603
:103550002020FFF761FF641C102CF7DB70BD00001A
:1035600070B504462C4840684FF6C07108402A499F
:1035700048602A4840684FF6F37108402749486080
:10358000012C04D180212648FEF710FF04E04FF4FF
:1035900080712348FEF70AFF01212248FEF7F8FE5A
:1035A0004FF480611E48FEF701FF0520FFF73BFE48
:1035B00002211C48FEF7FAFE0520FFF734FE1648EC
:1035C000006800F03F0015490968C02202EA0111B5
:1035D00040EA01050520FFF726FE02211148FEF70B
:1035E000D7FE0520FFF71FFE01210E48FEF7D0FE93
:1035F0004FF480610A48FEF7CBFE012C04D18021F4
:103600000748FEF7C5FE04E04FF480710448FEF75A
:10361000BFFE284670BD000000800A4000800E40BA
:1036200000000B4000800B4070B504460D46012C95
:1036300004D180212C48FEF7B9FE04E04FF48071DC
:103640002948FEF7B3FE01212848FEF7A1FE4FF4FA
:1036500080612548FEF79CFE0520FFF7E4FD244825
:10366000406840F03F00224948602248406840F0EE
:103670000C002049486045F0400000F03DF805206E
:10368000FFF7D1FD02211948FEF790FE0520FFF754
:10369000CAFD02211548FEF77BFE0520FFF7C3FD9A
:1036A000134840684FF6C0710840114948601148FE
:1036B00040684FF6F37108400E49486001210B48FD
:1036C000FEF766FE4FF480610748FEF761FE012CAD
:1036D00004D180210448FEF75BFE04E04FF48071C2
:1036E0000148FEF755FE70BD00000B4000800B4006
:1036F00000800A4000800E400E4909684FF6C072F3
:1037000011400C4A11601146096800F03F02114354
:10371000084A1160084909684FF6F3721140064AD9
:103720001160114609680C2202EA20121143024A74
:103730001160704700800A4000800E4070B504465A
:103740000D46012C04D180212C48FEF72FFE04E009
:103750004FF480712948FEF729FE01212848FEF721
:1037600017FE4FF480612548FEF712FE0520FFF793
:103770005AFD2448406840F03F00224948602248F2
:10378000406840F00C002049486045F0B800FFF761
:10379000B3FF0520FFF747FD02211948FEF706FE9B
:1037A0000520FFF740FD02211548FEF7F1FD052039
:1037B000FFF739FD134840684FF6C07108401149C2
:1037C0004860114840684FF6F37108400E49486060
:1037D00001210B48FEF7DCFD4FF480610748FEF73E
:1037E000D7FD012C04D180210448FEF7D1FD04E06F
:1037F0004FF480710148FEF7CBFD70BD00000B4017
:1038000000800B4000800A4000800E4070B50446E6
:103810000D46012C04D180212C48FEF7C7FD04E0A1
:103820004FF480712948FEF7C1FD01212848FEF7B9
:10383000BDFD4FF480612548FEF7AAFD0520FFF786
:10384000F2FC2448406840F03F002249486022488A
:10385000406840F00C00204948602846FFF74CFFC4
:103860000520FFF7E0FC02211948FEF79FFD052027
:10387000FFF7D9FC02211648FEF78AFD0520FFF765
:10388000D2FC144840684FF6C071084011494860A6
:10389000114840684FF6F37108400F494860012114
:1038A0000B48FEF775FD4FF480610848FEF770FD88
:1038B000012C04D180210548FEF76AFD04E04FF495
:1038C00080710248FEF764FD70BD000000000B40EF
:1038D00000800B4000800A4000800E4010B503A01D
:1038E00000F014F8002001F067FB10BD576F726BF9
:1038F00020776974682053656D6170686F72730D0D
:103900000A00000000BFFEE7704700000FB4054B3F
:1039100010B503A9044A029800F0F4F810BC5DF851
:1039200014FB00003D420008A00000200FB4084B2B
:1039300010B504A902AA039800F0E4F8044602A90D
:10394000002000F076FC204610BC5DF814FB00005F
:103950003342000802E008C8121F08C1002AFAD149
:1039600070477047002001E001C1121F002AFBD1FF
:10397000704700000149086070470000A400002063
:103980002DE9FF5F82B00021DDE90430020DDDF892
:1039900040B0034318D044F61050A2F2FF32424325
:1039A0001514119801281FD0A5EB0B00401C5FEAED
:1039B000000A4FF000064E4FDFF83891B0465046EF
:1039C00015D5CAF1000413E0119801244AA3012877
:1039D00001D16FEA0B010298119AC0E90031C0E9E8
:1039E000024206B0BDE8F09FCBF10000DFE70446DD
:1039F0000021404A491842EB0450CDE9001012E082
:103A0000E00707D032463B4640464946FDF738FEC0
:103A10008046894632463B4610461946FDF730FE41
:103A200006460F466410002CEAD1DDE90401DDE909
:103A30000023BAF1000F06DAFDF722FE42464B469C
:103A4000FDF71EFE05E0FEF783F842464B46FEF703
:103A50007FF804460E460022284BFEF751F903D8A2
:103A60004FF0FF30014607E00022254B204631464B
:103A7000FDF7C7FFFEF72CF9102409E0002C0ADB44
:103A80000A220023FDF7F8FE039B30321A55641E0C
:103A900050EA0102F2D1641C039AC4F111031444E8
:103AA000119A012A03D0012208430DD10AE00843EC
:103AB00004D000204FF0110B119072E7A3EB0B051F
:103AC0006D1E0DE05B4504DD4FF0000205F10105C0
:103AD00004E003DA4FF00002A5F10105002AECD062
:103AE00002981199C0E90231C0E9004579E7000068
:103AF000000014400000F03F300000000000F043E0
:103B00000000E03F2DE9FF4F95B09B4689460646F1
:103B100000250FE2252877D100242746F84A012105
:103B2000059400E0044316F8013F203B01FA03F03E
:103B30001042F7D130782A2811D06FF02F03307857
:103B4000A0F13002092A16D8059A44F0020402EBCB
:103B5000820203EB42021044761C0590EFE759F80D
:103B6000042B0592002A03DA504244F400540590D5
:103B700044F00204761C30782E2816D116F8010F76
:103B800044F004042A280DD06FF02F023078A0F101
:103B90003003092B09D807EB870302EB4303C7184F
:103BA000761CF3E759F8047B761C30786C280FD02C
:103BB00006DC4C2817D068280DD06A2814D104E000
:103BC000742810D07A280FD10DE044F400140AE0D4
:103BD00044F4801401E044F440147278824202D12B
:103BE00004F58014761C761C307866280BD013DC24
:103BF000582877D009DC002875D04528F6D046280B
:103C0000F4D047281AD19DE118E0632835D0642804
:103C100079D0652812D195E1702873D008DC672827
:103C2000F1D069286FD06E280DD06F2806D1B5E08D
:103C300073282CD0752875D0782874D05A461799D7
:103C400090476D1C75E1C4F30250022809D0032887
:103C50000DD0D9F8001004280DD00D6009F1040929
:103C600067E1D9F80010EA17C1E90052F6E7D9F880
:103C700000100D80F2E70D70F0E719F8041B8DF8C5
:103C8000001000208DF80100EA46012003E059F8F9
:103C900004AB4FF0FF3061074FF0000102D40DE09C
:103CA00008F101018846B9420FDA8045F8DB1AF8BD
:103CB00008100029F4D108E008F10101884681428A
:103CC000FADB1AF808100029F6D105985B46A0EB3C
:103CD000080721463846179A00F094FA284400EB6A
:103CE000080507E04DE029E10DE01AF8010B5A46FE
:103CF00017999047B8F10108F7D25B46214638463C
:103D0000179A13E142E00A220092C4F302524FF0E4
:103D1000000A022A08D059F804CB032A4FEAEC71B2
:103D20000AD00DE029E02AE009F1070121F007029D
:103D3000F2E802C1914609E00FFA8CFC4FEAEC71FF
:103D4000042A03D14FFA8CFC4FEAEC71002907DA00
:103D50000A460021DCF1000C61EB02012D2202E099
:103D6000220504D52B228DF80420012203E0E2076E
:103D700001D02022F7E7904659E00A2102E0102204
:103D80000DE010214FF0000A00910BE010224FF0DF
:103D9000000A44F004040827009203E008224FF0D0
:103DA000000A0092C4F30252022A05D059F804CB4B
:103DB0000021032A08D009E009F1070121F00702D8
:103DC000F2E802C1914605E01FFA8CFC042A01D1F9
:103DD0000CF0FF0C4FF00008220728D5702806D001
:103DE000009B83F0100353EA0A0305D00EE0402243
:103DF0008DF80420012208E05CEA010206D030229E
:103E00008DF804208DF8050002229046009B83F077
:103E1000080353EA0A030AD15CEA010201D16207EE
:103E200005D530228DF804204FF001087F1E582858
:103E300004D034A003900EA802900DE036A0F9E75C
:103E400053466046009AFDF717FD84460398825C4E
:103E50000298401E029002705CEA0100F0D10298C4
:103E600006A9081A00F1200A600702D524F480345C
:103E700000E00127574502DDA7EB0A0000E0002023
:103E800000EB0A01009005984144401A0590E003B8
:103E900006D45B462146179A059800F0B3F905440D
:103EA000002706E001A85A46C05D179990476D1C8F
:103EB0007F1C4745F6DBE0030CD55B462146179A8D
:103EC000059800F09FF9054404E030205A46179900
:103ED00090476D1C0099481E00900029F5DC08E011
:103EE000029802995A460078491C02911799904706
:103EF0006D1CBAF10001AAF1010AF1DC65E10000D4
:103F000009280100303132333435363738396162AF
:103F10006364656600000000303132333435363773
:103F200038394142434445460000000000F058F94A
:103F30000544761C307800287FF4ECAD19B0284693
:103F4000BDE8F08F620700D4062709F1070222F0CE
:103F5000070CFCE80223E14603F000485FEA080C86
:103F600002D00FF2702C0DE05FEA045C02D50FF274
:103F7000682C07E05FEAC47C02D00FF2602C01E0FD
:103F8000AFF2700C4FF0FF3823F00043CDF850C073
:103F900065280CD006DC452809D046281DD04728C6
:103FA0003DD13DE0662818D067287ED138E0002159
:103FB000112F01DB112000E0781CCDE9000106A9DA
:103FC0000EA8FFF7DDFCDDE90F010E9A0391002139
:103FD000009207F1010A04914DE04FF00040009774
:103FE000CDE9011006A90EA8FFF7CAFCDDE90F0212
:103FF00003920E9B11990022DDF80CA0009304920D
:1040000011B9791C00EB010AB7EB0A0004D4C0F126
:10401000FF3007F1010A0490AAEB0700019044E089
:10402000012F00DA01270021112F01DD112000E00E
:104030003846CDE9000106A90EA8FFF7A1FCDDE98D
:104040000F010E9A0391002104910092BA462107B4
:104050000CD40399514500DA8A46BAF1010F05DD07
:10406000009AAAF10101515C302908D0B84202DA65
:1040700010F1040F06DA0121CDE9011015E0AAF1D3
:104080000101E9E7002805DC049901440491AAEB49
:10409000000102E0411C514500DD8A460499401AA6
:1040A000401C01904FF000400290200704D401987A
:1040B000504501DBCDF8048000208DF84F000298B8
:1040C0000DF14F07B0F1004F25D02B200E90029834
:1040D0004FF0020800280CDA404202902D200E908A
:1040E00007E00A210298FDF7B1FB3031029007F892
:1040F000011DB8F10001A8F10108F2DC02980028C6
:10410000EFD1791E0E980870307800F0200040F052
:10411000450007F8020D12A8C01B00F1070814980B
:10412000007800B1012000EB0A01019801EBE07179
:1041300005984144401A401E0590E00306D45B46B2
:104140002146179A059800F05DF805441498007808
:1041500018B15A46179990476D1CE00324D55B4669
:104160002146179A059800F04DF805441CE0049884
:10417000002807DBDDE90301884203DD0098405C8D
:10418000179901E0179930205A469047049805F195
:104190000105401C04900198401E019004D12E207E
:1041A0005A46179990476D1CBAF10001AAF1010A0D
:1041B000DDDC05E017F8010B5A46179990476D1C96
:1041C000B8F10001A8F10108F4DC5B462146179A1A
:1041D0000598ABE62D0000002B0000002000000039
:1041E0002DE9F041044600251E461746880404D4F4
:1041F00005E039462020B0476D1C641EF9D52846DD
:10420000BDE8F0812DE9F041044600251E469046A8
:10421000C80301D5302700E02027880404D505E035
:1042200041463846B0476D1C641EF9D52846BDE8A6
:10423000F0810A68531C0B601070704738B5044653
:104240000D46E0B2009000231A4669460248006815
:1042500001F01EF9204638BD0400002010B500F022
:104260001DFD10BD1CB5FFF7F9FFFEF7F3FE00F0D2
:1042700035FDFEF7BDFDFDF707FEFDF729FFFFF752
:1042800041F803220021012000F0F8FF22490860D4
:104290000846006830B100231A4619461E480068D7
:1042A00001F0F6F800220121802000F0E7FF1B4911
:1042B000086000220121C80200F0E0FF18490860F0
:1042C0000020022103468022CDE9001015A11748E5
:1042D00001F018FA0020032103468022CDE90010E6
:1042E00013A1154801F00EFA002001210346802297
:1042F000CDE9001011A1134801F004FA00200321B8
:1043000003468022CDE900100FA1114801F0FAF90F
:1043100000F01EFF00201CBD08000020000000204F
:10432000040000205461736B31000000A9300008C4
:104330005461736B34000000DD3800085461736B06
:1043400035000000B52D00085461736B3600000085
:10435000F92900082DE9F04105460E461648076880
:1043600016480068001D00F039FD681C38B936B1E8
:1043700012480168091D124800F06FFD1AE07C190F
:104380000E4800684460BC4207D20C480168091D11
:104390000C48006800F047FD0CE008480168091D62
:1043A0000948006800F03FFD08480068844201D2D7
:1043B00006480460BDE8F081600000204C00002049
:1043C000B45C002054000020500000207C0000203D
:1043D00010B5044600F04EFD22480068401C2149FB
:1043E00008602148006840B91F480460084600681A
:1043F00001280DD100F0AAF90AE01C48006838B97C
:1044000019480068C06AE16A884201D81648046009
:1044100017480068401C164908601649E06A096898
:10442000884202D91349E06A0860E16A01EB810120
:10443000114A02EB8100211D00F00FFD00F02CFD60
:104440000A48006868B108480068C06AE16A8842A2
:1044500007D24FF0805009490860BFF34F8FBFF378
:104460006F8F10BD5C0000204C0000206800002011
:104470007800002064000020005C002004ED00E0D3
:1044800010B500F0F7FC10480068D0B90F4800F0F4
:10449000BAFC0F4800F0B7FC0C480E4908600C4805
:1044A0000D49086000220C210A2000F0E7FE0649B1
:1044B00008600846006820B108A10348006800F0C1
:1044C00025FD00F0E9FC10BD90000020C85C002034
:1044D000DC5C0020880000208C000020546D7251AC
:1044E0000000000070B523E000F06AFE1348006889
:1044F00008B9012000E00020054601F03BFABDB9F3
:1045000000F0B8FC0D48C068C468201D00F066FCCF
:104510000B480068401E0A4908600A480068401EAF
:104520000849086000F0B8FC204600F060F800BFC1
:10453000044800680028D7D170BD0000A05C0020AE
:104540005C0000205800002070B504460D46206C29
:1045500070B1216CE0680844E0606168E0688842FE
:1045600001D32068E0602846226CE168FCF7A2FFD6
:1045700070BD2DE9F04104460F4615464FF0000886
:10458000A66B206C40B9206860BB606801F082F9BE
:1045900080460020606025E07DB93946226CA06825
:1045A000FCF788FF216CA0680844A060D4E90110E2
:1045B000884217D32068A06014E03946226CE06876
:1045C000FCF778FF216CE068401AE0602168E06841
:1045D000884203D2216C6068401AE060022D01D14C
:1045E00006B1761E701CA0634046BDE8F08110B590
:1045F0000446206B00F060FC204600F05DFC10BD1E
:104600000146084A126812680AB9012200E0002235
:104610000A600A6822B9034A1268D268106800E08A
:1046200000207047880000200A4A22F007000A4A4A
:1046300010600022084B5A6044F6F872074B5A602B
:1046400000221A60014644F6F8724A601A460A606F
:1046500070470000B80B0020300000203800002018
:1046600000BFFFF73FFF07480068012807D94FF058
:10467000805005490860BFF34F8FBFF36F8F00F084
:10468000C1FBEEE7005C002004ED00E02DE9F04105
:1046900006460D4617469846069C0DB9246000E074
:1046A0002760E66325640121204600F0B1FEBDE8E5
:1046B000F0812DE9FF5F80460F469146DDE90E6AE5
:1046C000109CA9F10100216B01EB800B2BF0070B73
:1046D000002507E0795D04F134004155785D00B9AB
:1046E00002E06D1C102DF5D300BF002143200155C1
:1046F000052E00D30426E66266640020A064201D17
:1047000000F08EFB04F1180000F08AFB2461C6F172
:104710000500A0616462002505E0002104F14C0061
:1047200040F825106D1C052DF7D30020206684F875
:10473000640041465846039A00F078FA2060BAF1C6
:10474000000F01D0CAF80040BDE8FF9F10B500245B
:1047500007E004EB84010F4A02EB810000F053FBF9
:10476000641C052CF5D30C4800F04DFB0B4800F001
:104770004AFB0B4800F047FB0A4800F044FB0A489C
:1047800000F041FB044809490860044808490860F2
:1047900010BD0000005C0020645C0020785C0020FC
:1047A0008C5C0020A05C0020B45C00205000002045
:1047B000540000202DE9F04104460D4616461F46E0
:1047C0004FF0000865602461B5420CD8F01BA16968
:1047D000884202D34FF0010811E0211D094800680A
:1047E00000F021FB0BE0BE4204D2BD4202D34FF0E9
:1047F000010804E0211D0448006800F014FB404655
:10480000BDE8F0818C0000208800002070B50546CE
:1048100000F030FBA86B08B9012400E0002400F090
:104820003BFB204670BD70B5054600F023FBA86B2E
:10483000E96B884201D1012400E0002400F02CFB48
:10484000204670BDF8B505460E4610480068C068A1
:10485000C468201D00F0C2FAE069012811D1A069E6
:1048600041192B4632462046FFF7A4FF48B10020ED
:1048700003462A4601460090204601F00DF90746FE
:1048800000BF2046616A8847F8BD0000880000200C
:1048900070B586B04DE0039800284ADB059C60693E
:1048A00008B9012000E0002010B9201D00F096FAA0
:1048B00002A800F09FF8054603980A2837D2DFE8DF
:1048C00000F00905072527320608262800BF00BF8B
:1048D00000BF00BF0498A269811803462A462046FB
:1048E000FFF768FF88B12046616A8847E0690128C0
:1048F0000BD1002000900498A169421800231946AA
:10490000204601F0C9F8064600BF11E000BF0FE0E5
:1049100000BF0498A061A06941192B462A46204691
:10492000FFF748FF04E0204600F0C6FA00E000BFB1
:1049300000BF00231A4603A90348006800F0BAFC30
:104940000028A8D106B070BD90000020F8B505463B
:104950000C4600F035FC684600F04CF8064600981E
:1049600020BB44B9B54206D801F004F831462846C8
:10497000FFF768FF1CE03CB10E480068006808B90A
:10498000012000E000200446A91B22460A480068D6
:1049900000F0D2FA00F0EEFF50B94FF08050074916
:1049A0000860BFF34F8FBFF36F8F01E000F0E2FFAD
:1049B000F8BD00008C0000209000002004ED00E015
:1049C0000A490968096809B9012100E0002121B1FB
:1049D0004FF0FF31064A116006E004490968C968D2
:1049E000C868034A41681160704700005000002009
:1049F0007C00002070B5044600F0C4FE0546074860
:104A00000068854204D200F00BF80120206001E02C
:104A10000020206001480560284670BD98000020F5
:104A20002DE9F84326E01D480068C06805681B486A
:104A30000068C068C468201D00F0D0F92046616A93
:104A40008847E069012815D1A0694619AE4207D907
:104A500066602461211D1148006800F0E4F909E056
:104A6000002003462A4601460090204601F014F833
:104A7000804600BF09480068006808B9012000E0CE
:104A800000200028CFD00548076805480068034982
:104A9000086003480760BDE8F88300008800002034
:104AA0008C00002000BFBF2080F31188BFF34F8F20
:104AB000BFF36F8F00BF00BFFEE708B500BF6846B9
:104AC000FFF79EFD044620460099FFF73FFFFFF7E2
:104AD000DFFEF4E770B5044600F0CCF994F94550D8
:104AE00010E0606A08B9012000E0002038B904F144
:104AF000240000F0FFFE18B100F0AEFA00E003E081
:104B0000681E45B2002DECDC00BFFF2084F8450094
:104B100000F0C2F900F0AEF994F9445010E02069B9
:104B200008B9012000E0002048B904F1100000F0AD
:104B3000E1FE08B100F090FA681E45B200E001E025
:104B4000002DECDC00BFFF2084F8440000F0A4F945
:104B500070BD00002DE9F04104464FF0000800F060
:104B60002FFB2648006820B9FFF75EFD012023498E
:104B7000086044B1083404F0070020B104F00700D5
:104B8000C0F108000444002C32D044F6F87084428E
:104B90002ED21B4F3846056801E02F462D68686805
:104BA000A04202D228680028F7D1164885421FD0BB
:104BB000386800F10808286838606868001B102809
:104BC00010D92E196868001B70606C6071680C4801
:104BD00000E00068026852688A42FAD302683260D4
:104BE000066000BF084968680968081A0649086035
:104BF00000F0C0FE4046BDE8F08100004400002007
:104C000030000020380000204000002006480068E6
:104C100030B10549096801F14800896C491C0160FF
:104C200001480068704700004C000020001F4FF052
:104C300080730360001F21F001030360001F034B1A
:104C4000036014380260203870470000A54A00084D
:104C50002DE9F04106460F46FCF7E9FF041E0D461C
:104C600018BF0120284320F00040C0F17F6000F110
:104C7000E040C00F0ED0301C18BF0120384320F098
:104C80000040C0F17F6000F1E040C00F04BF012090
:104C9000FEF770FE20462946BDE8F08110B50120E0
:104CA000FDF752FDFDF76EFD012814D10921022008
:104CB000FDF7A0FB0120FDF797FBFDF7BBFB0128EB
:104CC00009D10020FDF7D6FB0120FDF7CDFB4FF405
:104CD0008070FDF7DBFBFDF79BFD10BD10B588B0C4
:104CE00001214807FDF768FD01214807FDF764FD34
:104CF00000208DF817008DF818008DF819008DF838
:104D00001A008DF81B0003208DF81C008DF81D0083
:104D100001208DF81E0000208DF816000120ADF84E
:104D2000140005A92948FDF747FA01208DF816005F
:104D30000220ADF8140005A92448FDF73DFA012131
:104D40008020FDF739FD00212148FEF7DBF84FF404
:104D5000E13001906020ADF808000020ADF80A00B5
:104D6000ADF80C00ADF80E004FF44070ADF8100037
:104D700001A91748FEF70EF9012210211448FEF789
:104D8000FFF807200221002804DB4A07130E114A0E
:104D9000135406E04A07140E0F4A00F00F031B1FBE
:104DA000D45400BF0720002809DB00F01F020121B6
:104DB00091404209920002F1E022C2F8001100BFC6
:104DC00001210348FEF7C0F808B010BD00800E4076
:104DD0000080034000E400E018ED00E001460A69AD
:104DE000D1E901309860D1E90103586050688842E8
:104DF00001D188685060002008611068401E106072
:104E000010687047704700F1080141604FF0FF31B2
:104E1000816000F10801C1600161002101607047FB
:104E200000210161704710B502460B685C1C0CB98B
:104E3000106907E002F1080000E040684468246857
:104E40009C42FAD944684C604C68A160886041601B
:104E50000A611468641C146010BD42684A6093685B
:104E60008B60936859609160086103685B1C036004
:104E70007047000000BFBF2080F31188BFF34F8F41
:104E8000BFF36F8F00BF03480068401C01490860F2
:104E9000704700004800002006480068401E054991
:104EA00008600846006820B9002080F3118800BF20
:104EB00000BF70474800002070B506463546B6B1C1
:104EC000083D2C4600F07CF96168094800E0006864
:104ED000026852688A42FAD3026822600460054977
:104EE0006068096808440349086000F043FD70BD2C
:104EF000300000204000002003484FF0E0214861CE
:104F000007200861704700007F380100024600203A
:104F10000BE0084B53F8303033B9064B43F83010F0
:104F200003EBC0035A6002E0401C0A28F1D300BF23
:104F300070470000B05B00202DE9F04105460E46A9
:104F400017462C46FFF796FF94F94400401C10B911
:104F5000002084F8440094F94500401C10B900205A
:104F600084F84500FFF798FFA06B28B93A46314610
:104F700004F1240000F086F82046FFF7ABFDBDE801
:104F8000F081000070B50446002544B100F018F926
:104F900000212046FFF7DEF900F0ECFC05463DB9A4
:104FA0004FF0805003490860BFF34F8FBFF36F8FFE
:104FB00070BD000004ED00E070B50546FFF75AFF34
:104FC00015B91E48006800E028460446201DFFF77A
:104FD00005FFA06A18B104F11800FFF7FFFE18489A
:104FE0000068401C1649086014480068844209D1D2
:104FF000211D1448FFF731FF13480068401C124977
:10500000086009E011480068401E10490860204609
:10501000FFF7EDFAFFF7D4FCFFF73EFF0C480068FE
:1050200058B106480068844207D14FF080500949C2
:105030000860BFF34F8FBFF36F8F70BD4C0000202F
:1050400078000020A05C0020580000205C000020B8
:105050006800002004ED00E001200149086070476D
:105060007000002070B505460C46054801681831EF
:105070002846FFF7D8FE01212046FFF76BF970BDE7
:105080004C00002070B506460D46144606480168DF
:1050900018313046FFF7E1FE0CB14FF0FF352146E5
:1050A0002846FFF757F970BD4C00002070B5054643
:1050B0002C46002D39D01D49E06A0968C96A88422A
:1050C00033D2A06900F0004028B918480068C06ACF
:1050D000C0F10500A061E16A01EB8101144A02EB15
:1050E00081016069884201D1012000E00020C0B147
:1050F000201DFFF773FE0D480068C06AE0620D498D
:10510000E06A0968884202D90A49E06A0860E16AEF
:1051100001EB8101064A02EB8100211DFFF79DFE94
:1051200003E002480068C06AE06270BD4C000020E5
:10513000005C002064000020034909680160034905
:105140000968416070470000740000206000002082
:105150001CB5144800210B468022CDE9001012A195
:10516000134800F0CFFA0446012C02D100F076FC7F
:105170000446012C14D100BFBF2080F31188BFF377
:105180004F8FBFF36F8F00BF4FF0FF3009490860AA
:1051900001200949086000200849086000F054F81F
:1051A0001CBD00008000002049444C450000000068
:1051B000614600087C00002068000020600000209C
:1051C00002480068401C01490860704784000020C4
:1051D0001848006818B101201749086028E000202D
:1051E000154908601548016800E0491E01EB81007F
:1051F000134A52F8200008B9012000E000200028DE
:10520000F3D101EB81020E4B03EB8200426852683E
:10521000426000F108024368934202D1426852683A
:1052200042604268D268074B1A600448016000BFC0
:1052300070470000840000207000002064000020FF
:10524000005C00204C00002010B50A48006840F4C3
:105250007F00084908600846006840F07F40086009
:10526000FFF74AFE002004490860FAF7A5FF002076
:1052700010BD000020ED00E0480000202DE9F843BB
:1052800007460D4690460DB9002601E007FB05F6DE
:1052900006F14800FFF75EFC044644B104F14809FA
:1052A00043464A46294638460094FFF7EFF9204620
:1052B000BDE8F8832DE9FF4782B0054689461E46C2
:1052C0004FF0000A2C4600BFFFF7D4FDD4F8388019
:1052D000B8F1000F3BD0E76849462046FFF734F9A4
:1052E000DEB9A8F10100A063206810B9FFF78EFCB9
:1052F0006060206908B9012000E0002008BB04F1CB
:10530000100000F0F7FAE0B14FF080503F4908601C
:10531000BFF34F8FBFF36F8F13E0E760606A08B988
:10532000012000E0002060B904F1240000F0E2FA5E
:1053300038B14FF0805035490860BFF34F8FBFF34D
:105340006F8FFFF7A9FD012006B0BDE8F087049834
:1053500018B9FFF7A1FD0020F6E7BAF1000F04D15C
:105360006846FFF7E9FE4FF0010AFFF795FDFFF7EA
:1053700027FFFFF77FFD94F94400401C10B900207F
:1053800084F8440094F94500401C10B9002084F8CA
:105390004500FFF781FD04A9684600F085F940BB90
:1053A0002046FFF733FAF0B1206830B9FFF762FD0D
:1053B0006068FFF77BFEFFF76FFD04F1240004999E
:1053C000FFF750FE2046FFF785FB00F0D3FA0028D8
:1053D0007FF47AAF4FF080500C490860BFF34F8FD5
:1053E000BFF36F8F70E72046FFF774FB00F0C2FA3F
:1053F0006AE72046FFF76EFB00F0BCFA2046FFF795
:1054000005FA0028EED000209EE7000004ED00E041
:1054100070B505460E462C46FFF72CFDD4E90F1259
:10542000206801FB020060600020A0632068A0608B
:10543000E06B401E226C216800FB0210E060FF2040
:1054400084F8440084F845009EB9206908B9012019
:1054500000E00020A8B904F1100000F04BFA80B180
:105460004FF0805009490860BFF34F8FBFF36F8F33
:1054700007E004F11000FFF7C6FC04F12400FFF779
:10548000C2FCFFF709FD012070BD000004ED00E043
:105490002DE9FF4383B0074688461D464FF00009BB
:1054A0003C4600BFFFF7E6FCA06BE16B884201D3EE
:1054B000022D28D12A4641462046FFF75AF80646D3
:1054C000606A08B9012000E0002068B904F12400F6
:1054D00000F010FA88B14FF0805032490860BFF3F5
:1054E0004F8FBFF36F8F08E03EB14FF080502D49D2
:1054F0000860BFF34F8FBFF36F8FFFF7CDFC012024
:1055000007B0BDE8F083059818B9FFF7C5FC002087
:10551000F6E7B9F1000F04D101A8FFF70DFE4FF037
:105520000109FFF7B9FCFFF74BFEFFF7A3FC94F965
:105530004400401C10B9002084F8440094F9450050
:10554000401C10B9002084F84500FFF7A5FC05A910
:1055500001A800F0A9F8F0B92046FFF764F9A0B15E
:1055600004F110000599FFF77DFD2046FFF7B2FA20
:1055700000F000FA002895D14FF0805009490860EA
:10558000BFF34F8FBFF36F8F8CE72046FFF7A2FA70
:1055900000F0F0F986E72046FFF79CFA00F0EAF900
:1055A0000020ADE704ED00E02DE9F05F05468A46F6
:1055B00016461F462C4600BFBF21EFF3118081F332
:1055C0001188BFF34F8FBFF36F8F00BF8146A06B71
:1055D000E16B884201D3022F20D194F945B03A46BD
:1055E00051462046FEF7C5FF0BF1010070B9606A15
:1055F00008B9012000E0002068B904F1240000F09F
:1056000079F940B13EB10120306004E00BF10100B6
:1056100040B284F845004FF0010801E04FF0000867
:1056200000BF89F3118800BF4046BDE8F09F2DE917
:10563000F04705460E462C4600BFBF21EFF3118010
:1056400081F31188BFF34F8FBFF36F8F00BF804688
:10565000D4F83890E06B48451DD994F945A009F17C
:105660000100A0630AF1010070B9606A08B9012065
:1056700000E0002068B904F1240000F03BF940B1DB
:105680003EB10120306004E00AF1010040B284F82C
:105690004500012700E0002700BF88F3118800BF04
:1056A0003846BDE8F087000070B504460D46FFF7A8
:1056B000E1FB124802682868401C08B9002619E07E
:1056C0000F4920680968884204D06068904201D878
:1056D00001260FE06068101A2968884209D22868FC
:1056E0006168511A401A28602046FFF725FD002600
:1056F00000E00126FFF7D0FB304670BD60000020BF
:10570000740000202DE9FF4F85B08046894617467A
:10571000DDE912ABB800FFF71DFA064656B1682066
:10572000FFF718FA04460CB1266304E03046FFF791
:10573000C3FB00E000247CB10020CDE900ABCDE943
:1057400002403A4649464046089BFEF7B2FF2046D3
:10575000FEF73EFE012501E04FF0FF35284609B077
:10576000BDE8F08F0549096809B9012005E0044941
:10577000096809B9022000E0002070476800002095
:105780008400002001490868704700006000002084
:105790002DE9F041002734480068002857D13348EC
:1057A0000068451C314805608DB93148D0F800804B
:1057B000304800682E4908602E48C0F800802E4806
:1057C0000068401C2C490860FFF7FAF800BF2B481E
:1057D000006885423AD300BF25480068006808B9D0
:1057E000012000E0002020B14FF0FF302349086085
:1057F0002BE01F480068C068C4686668B54202D2E2
:105800001E48066021E0201DFFF7E8FAA06A18B1E3
:1058100004F11800FFF7E2FA1949E06A09688842C2
:1058200002D91749E06A0860E16A01EB8101154A73
:1058300002EB8100211DFFF710FB1349E06A0968A4
:10584000C96A8842C8D30127C6E700BF04E00F48F1
:105850000068401C0D4908600D48006800B1012730
:105860003846BDE8F0810000840000206000002080
:105870005000002054000020740000207C00002014
:1058800064000020005C00204C0000206C00002020
:105890007000002070B505462C4600261DB3A06C94
:1058A000401EA064616CE06A88421CD0A06CD0B934
:1058B000201DFFF793FA606CE062E06AC0F105001A
:1058C000A0610A49E06A0968884202D90749E06A8A
:1058D0000860E16A01EB8101054A02EB8100211DAC
:1058E000FFF7BBFA0126304670BD000064000020BF
:1058F000005C002070B50646F068C46804F118002A
:10590000FFF76CFA15480068A0B9201DFFF766FA8A
:105910001349E06A0968884202D91149E06A0860BF
:10592000E16A01EB81010F4A02EB8100211DFFF7C3
:1059300094FA04E004F118010B48FFF78EFA0B49C2
:10594000E06A0968C96A884204D90125012008492A
:10595000086000E00025284670BD0000840000209B
:1059600064000020005C00208C5C00204C000020C3
:105970007000002070B500240026FFF77BFA2E4847
:105980000068401E2C4908600846006800284ED177
:105990002A48006800284AD023E02948C068C46823
:1059A00004F11800FFF71AFA201DFFF717FA25492E
:1059B000E06A0968884202D92249E06A0860E16A1F
:1059C00001EB8101204A02EB8100211DFFF745FA1E
:1059D0001E49E06A0968C96A884202D301201C494D
:1059E00008601748006808B9012000E0002000287E
:1059F000D3D00CB1FEF7E4FF1648056865B100BFCF
:105A0000FFF7C6FE10B10120114908606D1E002D80
:105A1000F6D100200F4908600D48006838B1012612
:105A200030070D490860BFF34F8FBFF36F8FFFF74B
:105A300033FA304670BD0000840000205C00002076
:105A40008C5C002064000020005C00204C000020E2
:105A5000700000206C00002004ED00E01CB5002464
:105A6000FEF70EFD0748006850B1074803210023E8
:105A70008022CDE9001005A10648FFF743FE044649
:105A800020461CBD9000002094000020546D722020
:105A900053766300BB4A00082DE9FE4305460C46D9
:105AA00016461F46DDF828804FF0000914480068AC
:105AB00010B3009401960295062C15DAFFF752FEFA
:105AC000022808D10023424669460D480068FFF7C6
:105AD000DFFC814610E000231A466946084800684A
